{
  "contractName": "AuditContract",
  "abi": [
    {
      "inputs": [
        {
          "internalType": "address",
          "name": "_auditAddress",
          "type": "address"
        }
      ],
      "stateMutability": "nonpayable",
      "type": "constructor"
    },
    {
      "anonymous": false,
      "inputs": [
        {
          "indexed": true,
          "internalType": "address",
          "name": "userAddress",
          "type": "address"
        },
        {
          "indexed": false,
          "internalType": "address",
          "name": "doctorContract",
          "type": "address"
        }
      ],
      "name": "DoctorContractCreated",
      "type": "event"
    },
    {
      "anonymous": false,
      "inputs": [
        {
          "indexed": true,
          "internalType": "address",
          "name": "userAddress",
          "type": "address"
        },
        {
          "indexed": false,
          "internalType": "address",
          "name": "patientContract",
          "type": "address"
        }
      ],
      "name": "PatientContractCreated",
      "type": "event"
    },
    {
      "anonymous": false,
      "inputs": [
        {
          "indexed": true,
          "internalType": "address",
          "name": "patient",
          "type": "address"
        },
        {
          "indexed": true,
          "internalType": "address",
          "name": "doctor",
          "type": "address"
        },
        {
          "indexed": false,
          "internalType": "uint256",
          "name": "timestamp",
          "type": "uint256"
        }
      ],
      "name": "TransactionLogged",
      "type": "event"
    },
    {
      "anonymous": false,
      "inputs": [
        {
          "indexed": true,
          "internalType": "address",
          "name": "userAddress",
          "type": "address"
        },
        {
          "indexed": false,
          "internalType": "enum AuditContract.Role",
          "name": "role",
          "type": "uint8"
        }
      ],
      "name": "UserRegistered",
      "type": "event"
    },
    {
      "inputs": [],
      "name": "auditAddress",
      "outputs": [
        {
          "internalType": "address",
          "name": "",
          "type": "address"
        }
      ],
      "stateMutability": "view",
      "type": "function",
      "constant": true
    },
    {
      "inputs": [
        {
          "internalType": "address",
          "name": "",
          "type": "address"
        },
        {
          "internalType": "address",
          "name": "",
          "type": "address"
        }
      ],
      "name": "patientPermissions",
      "outputs": [
        {
          "internalType": "bool",
          "name": "",
          "type": "bool"
        }
      ],
      "stateMutability": "view",
      "type": "function",
      "constant": true
    },
    {
      "inputs": [
        {
          "internalType": "uint256",
          "name": "",
          "type": "uint256"
        }
      ],
      "name": "registeredUsers",
      "outputs": [
        {
          "internalType": "address",
          "name": "",
          "type": "address"
        }
      ],
      "stateMutability": "view",
      "type": "function",
      "constant": true
    },
    {
      "inputs": [
        {
          "internalType": "address",
          "name": "",
          "type": "address"
        },
        {
          "internalType": "address",
          "name": "",
          "type": "address"
        },
        {
          "internalType": "uint256",
          "name": "",
          "type": "uint256"
        }
      ],
      "name": "transactionHistory",
      "outputs": [
        {
          "internalType": "address",
          "name": "doctor",
          "type": "address"
        },
        {
          "internalType": "uint256",
          "name": "timestamp",
          "type": "uint256"
        },
        {
          "internalType": "string",
          "name": "details",
          "type": "string"
        }
      ],
      "stateMutability": "view",
      "type": "function",
      "constant": true
    },
    {
      "inputs": [
        {
          "internalType": "address",
          "name": "",
          "type": "address"
        }
      ],
      "name": "users",
      "outputs": [
        {
          "internalType": "string",
          "name": "name",
          "type": "string"
        },
        {
          "internalType": "string",
          "name": "contactInfo",
          "type": "string"
        },
        {
          "internalType": "enum AuditContract.Role",
          "name": "role",
          "type": "uint8"
        },
        {
          "internalType": "bool",
          "name": "isRegistered",
          "type": "bool"
        },
        {
          "internalType": "address",
          "name": "associatedContract",
          "type": "address"
        }
      ],
      "stateMutability": "view",
      "type": "function",
      "constant": true
    },
    {
      "inputs": [
        {
          "internalType": "address",
          "name": "_userAddress",
          "type": "address"
        },
        {
          "internalType": "string",
          "name": "_name",
          "type": "string"
        },
        {
          "internalType": "string",
          "name": "_contactInfo",
          "type": "string"
        },
        {
          "internalType": "enum AuditContract.Role",
          "name": "_role",
          "type": "uint8"
        }
      ],
      "name": "registerUser",
      "outputs": [],
      "stateMutability": "nonpayable",
      "type": "function"
    },
    {
      "inputs": [
        {
          "internalType": "address",
          "name": "_userAddress",
          "type": "address"
        },
        {
          "internalType": "string",
          "name": "_name",
          "type": "string"
        },
        {
          "internalType": "string",
          "name": "_contactInfo",
          "type": "string"
        }
      ],
      "name": "updateUser",
      "outputs": [],
      "stateMutability": "nonpayable",
      "type": "function"
    },
    {
      "inputs": [
        {
          "internalType": "address",
          "name": "_patient",
          "type": "address"
        },
        {
          "internalType": "string",
          "name": "_details",
          "type": "string"
        }
      ],
      "name": "logTransaction",
      "outputs": [],
      "stateMutability": "nonpayable",
      "type": "function"
    },
    {
      "inputs": [
        {
          "internalType": "address",
          "name": "_patient",
          "type": "address"
        },
        {
          "internalType": "address",
          "name": "_doctor",
          "type": "address"
        }
      ],
      "name": "getTransactionHistory",
      "outputs": [
        {
          "components": [
            {
              "internalType": "address",
              "name": "doctor",
              "type": "address"
            },
            {
              "internalType": "uint256",
              "name": "timestamp",
              "type": "uint256"
            },
            {
              "internalType": "string",
              "name": "details",
              "type": "string"
            }
          ],
          "internalType": "struct AuditContract.Transaction[]",
          "name": "",
          "type": "tuple[]"
        }
      ],
      "stateMutability": "view",
      "type": "function",
      "constant": true
    },
    {
      "inputs": [
        {
          "internalType": "address",
          "name": "_userAddress",
          "type": "address"
        }
      ],
      "name": "getAssociatedContract",
      "outputs": [
        {
          "internalType": "address",
          "name": "",
          "type": "address"
        }
      ],
      "stateMutability": "view",
      "type": "function",
      "constant": true
    },
    {
      "inputs": [],
      "name": "getAllUsers",
      "outputs": [
        {
          "internalType": "address[]",
          "name": "",
          "type": "address[]"
        },
        {
          "internalType": "string[]",
          "name": "",
          "type": "string[]"
        },
        {
          "internalType": "enum AuditContract.Role[]",
          "name": "",
          "type": "uint8[]"
        }
      ],
      "stateMutability": "view",
      "type": "function",
      "constant": true
    },
    {
      "inputs": [
        {
          "internalType": "address",
          "name": "_doctor",
          "type": "address"
        }
      ],
      "name": "grantPermission",
      "outputs": [],
      "stateMutability": "nonpayable",
      "type": "function"
    },
    {
      "inputs": [
        {
          "internalType": "address",
          "name": "_doctor",
          "type": "address"
        }
      ],
      "name": "getPermittedPatients",
      "outputs": [
        {
          "internalType": "address[]",
          "name": "",
          "type": "address[]"
        }
      ],
      "stateMutability": "view",
      "type": "function",
      "constant": true
    }
  ],
  "bytecode": "0x60806040523480156200001157600080fd5b5060405162005d9f38038062005d9f833981810160405281019062000037919062000096565b80600360006101000a81548173ffffffffffffffffffffffffffffffffffffffff021916908373ffffffffffffffffffffffffffffffffffffffff1602179055505062000110565b6000815190506200009081620000f6565b92915050565b600060208284031215620000a957600080fd5b6000620000b9848285016200007f565b91505092915050565b6000620000cf82620000d6565b9050919050565b600073ffffffffffffffffffffffffffffffffffffffff82169050919050565b6200010181620000c2565b81146200010d57600080fd5b50565b615c7f80620001206000396000f3fe60806040523480156200001157600080fd5b5060043610620000e25760003560e01c80636f8826ed1162000099578063818517c3116200006f578063818517c31462000279578063a87430ba1462000299578063db5a917a14620002d3578063e2842d79146200030957620000e2565b80636f8826ed14620001ed5780636fb6fe22146200020d5780637259e0f8146200024357620000e2565b80630160494314620000e757806310e8b22d146200011d57806315da4e39146200013d5780632d8e327814620001735780634955361a146200019357806357870d5c14620001cb575b600080fd5b620001056004803603810190620000ff9190620021db565b6200032d565b60405162000114919062002adf565b60405180910390f35b6200013b6004803603810190620001359190620022f8565b6200070b565b005b6200015b600480360381019062000155919062002207565b620008e4565b6040516200016a919062002b55565b60405180910390f35b6200019160048036038101906200018b9190620021db565b62000bbd565b005b620001b16004803603810190620001ab919062002248565b62000e43565b604051620001c29392919062002a9b565b60405180910390f35b620001d562000f48565b604051620001e4919062002a51565b60405180910390f35b6200020b600480360381019062000205919062002380565b62000f6e565b005b6200022b6004803603810190620002259190620021db565b6200156b565b6040516200023a919062002a51565b60405180910390f35b6200026160048036038101906200025b91906200241e565b62001667565b60405162000270919062002a51565b60405180910390f35b6200029760048036038101906200029191906200229e565b620016a7565b005b620002b76004803603810190620002b19190620021db565b620019f0565b604051620002ca95949392919062002bb3565b60405180910390f35b620002f16004803603810190620002eb919062002207565b62001b80565b60405162000300919062002b79565b60405180910390f35b6200031362001baf565b604051620003249392919062002b03565b60405180910390f35b6060600060048054905067ffffffffffffffff81111562000377577f4e487b7100000000000000000000000000000000000000000000000000000000600052604160045260246000fd5b604051908082528060200260200182016040528015620003a65781602001602082028036833780820191505090505b5090506000805b600480549050811015620005b1576002600060048381548110620003fa577f4e487b7100000000000000000000000000000000000000000000000000000000600052603260045260246000fd5b9060005260206000200160009054906101000a900473ffffffffffffffffffffffffffffffffffffffff1673ffffffffffffffffffffffffffffffffffffffff1673ffffffffffffffffffffffffffffffffffffffff16815260200190815260200160002060008673ffffffffffffffffffffffffffffffffffffffff1673ffffffffffffffffffffffffffffffffffffffff16815260200190815260200160002060009054906101000a900460ff16156200059b5760048181548110620004eb577f4e487b7100000000000000000000000000000000000000000000000000000000600052603260045260246000fd5b9060005260206000200160009054906101000a900473ffffffffffffffffffffffffffffffffffffffff1683838151811062000550577f4e487b7100000000000000000000000000000000000000000000000000000000600052603260045260246000fd5b602002602001019073ffffffffffffffffffffffffffffffffffffffff16908173ffffffffffffffffffffffffffffffffffffffff16815250508180620005979062002fb1565b9250505b8080620005a89062002fb1565b915050620003ad565b5060008167ffffffffffffffff811115620005f5577f4e487b7100000000000000000000000000000000000000000000000000000000600052604160045260246000fd5b604051908082528060200260200182016040528015620006245781602001602082028036833780820191505090505b50905060005b82811015620006ff578381815181106200066d577f4e487b7100000000000000000000000000000000000000000000000000000000600052603260045260246000fd5b6020026020010151828281518110620006af577f4e487b7100000000000000000000000000000000000000000000000000000000600052603260045260246000fd5b602002602001019073ffffffffffffffffffffffffffffffffffffffff16908173ffffffffffffffffffffffffffffffffffffffff16815250508080620006f69062002fb1565b9150506200062a565b50809350505050919050565b600360009054906101000a900473ffffffffffffffffffffffffffffffffffffffff1673ffffffffffffffffffffffffffffffffffffffff163373ffffffffffffffffffffffffffffffffffffffff16146200079e576040517f08c379a0000000000000000000000000000000000000000000000000000000008152600401620007959062002c84565b60405180910390fd5b6000808473ffffffffffffffffffffffffffffffffffffffff1673ffffffffffffffffffffffffffffffffffffffff16815260200190815260200160002060020160019054906101000a900460ff166200082f576040517f08c379a0000000000000000000000000000000000000000000000000000000008152600401620008269062002c1e565b60405180910390fd5b816000808573ffffffffffffffffffffffffffffffffffffffff1673ffffffffffffffffffffffffffffffffffffffff16815260200190815260200160002060000190805190602001906200088692919062002058565b50806000808573ffffffffffffffffffffffffffffffffffffffff1673ffffffffffffffffffffffffffffffffffffffff1681526020019081526020016000206001019080519060200190620008de92919062002058565b50505050565b6060600360009054906101000a900473ffffffffffffffffffffffffffffffffffffffff1673ffffffffffffffffffffffffffffffffffffffff163373ffffffffffffffffffffffffffffffffffffffff1614806200096e57508273ffffffffffffffffffffffffffffffffffffffff163373ffffffffffffffffffffffffffffffffffffffff16145b80620009a557508173ffffffffffffffffffffffffffffffffffffffff163373ffffffffffffffffffffffffffffffffffffffff16145b620009e7576040517f08c379a0000000000000000000000000000000000000000000000000000000008152600401620009de9062002cc8565b60405180910390fd5b600160008473ffffffffffffffffffffffffffffffffffffffff1673ffffffffffffffffffffffffffffffffffffffff16815260200190815260200160002060008373ffffffffffffffffffffffffffffffffffffffff1673ffffffffffffffffffffffffffffffffffffffff168152602001908152602001600020805480602002602001604051908101604052809291908181526020016000905b8282101562000bb157838290600052602060002090600302016040518060600160405290816000820160009054906101000a900473ffffffffffffffffffffffffffffffffffffffff1673ffffffffffffffffffffffffffffffffffffffff1673ffffffffffffffffffffffffffffffffffffffff1681526020016001820154815260200160028201805462000b199062002f7b565b80601f016020809104026020016040519081016040528092919081815260200182805462000b479062002f7b565b801562000b985780601f1062000b6c5761010080835404028352916020019162000b98565b820191906000526020600020905b81548152906001019060200180831162000b7a57829003601f168201915b5050505050815250508152602001906001019062000a83565b50505050905092915050565b6000803373ffffffffffffffffffffffffffffffffffffffff1673ffffffffffffffffffffffffffffffffffffffff16815260200190815260200160002060020160019054906101000a900460ff1662000c4e576040517f08c379a000000000000000000000000000000000000000000000000000000000815260040162000c459062002cea565b60405180910390fd5b6000808273ffffffffffffffffffffffffffffffffffffffff1673ffffffffffffffffffffffffffffffffffffffff16815260200190815260200160002060020160019054906101000a900460ff16801562000d69575060018081111562000cdf577f4e487b7100000000000000000000000000000000000000000000000000000000600052602160045260246000fd5b6000808373ffffffffffffffffffffffffffffffffffffffff1673ffffffffffffffffffffffffffffffffffffffff16815260200190815260200160002060020160009054906101000a900460ff16600181111562000d67577f4e487b7100000000000000000000000000000000000000000000000000000000600052602160045260246000fd5b145b62000dab576040517f08c379a000000000000000000000000000000000000000000000000000000000815260040162000da29062002d0c565b60405180910390fd5b6001600260003373ffffffffffffffffffffffffffffffffffffffff1673ffffffffffffffffffffffffffffffffffffffff16815260200190815260200160002060008373ffffffffffffffffffffffffffffffffffffffff1673ffffffffffffffffffffffffffffffffffffffff16815260200190815260200160002060006101000a81548160ff02191690831515021790555050565b6001602052826000526040600020602052816000526040600020818154811062000e6c57600080fd5b906000526020600020906003020160009250925050508060000160009054906101000a900473ffffffffffffffffffffffffffffffffffffffff169080600101549080600201805462000ebf9062002f7b565b80601f016020809104026020016040519081016040528092919081815260200182805462000eed9062002f7b565b801562000f3e5780601f1062000f125761010080835404028352916020019162000f3e565b820191906000526020600020905b81548152906001019060200180831162000f2057829003601f168201915b5050505050905083565b600360009054906101000a900473ffffffffffffffffffffffffffffffffffffffff1681565b600360009054906101000a900473ffffffffffffffffffffffffffffffffffffffff1673ffffffffffffffffffffffffffffffffffffffff163373ffffffffffffffffffffffffffffffffffffffff161462001001576040517f08c379a000000000000000000000000000000000000000000000000000000000815260040162000ff89062002c84565b60405180910390fd5b6000808573ffffffffffffffffffffffffffffffffffffffff1673ffffffffffffffffffffffffffffffffffffffff16815260200190815260200160002060020160019054906101000a900460ff161562001093576040517f08c379a00000000000000000000000000000000000000000000000000000000081526004016200108a9062002ca6565b60405180910390fd5b6000806001811115620010cf577f4e487b7100000000000000000000000000000000000000000000000000000000600052602160045260246000fd5b82600181111562001109577f4e487b7100000000000000000000000000000000000000000000000000000000600052602160045260246000fd5b1415620011c9576000600360009054906101000a900473ffffffffffffffffffffffffffffffffffffffff166040516200114390620020e9565b6200114f919062002a51565b604051809103906000f0801580156200116c573d6000803e3d6000fd5b5090508091508573ffffffffffffffffffffffffffffffffffffffff167ffb8b0ea93cb2b843283b3292ae5283d3989cfbad80456d18194327ea8f15922d83604051620011ba919062002a51565b60405180910390a250620012fb565b60018081111562001203577f4e487b7100000000000000000000000000000000000000000000000000000000600052602160045260246000fd5b8260018111156200123d577f4e487b7100000000000000000000000000000000000000000000000000000000600052602160045260246000fd5b1415620012fa57600085600360009054906101000a900473ffffffffffffffffffffffffffffffffffffffff166040516200127890620020f7565b6200128592919062002a6e565b604051809103906000f080158015620012a2573d6000803e3d6000fd5b5090508091508573ffffffffffffffffffffffffffffffffffffffff167f61cdb5df8aaea4d1bb51286f1efa577b503a1252e28c9607309ca7360c2f280583604051620012f0919062002a51565b60405180910390a2505b5b6040518060a001604052808581526020018481526020018360018111156200134c577f4e487b7100000000000000000000000000000000000000000000000000000000600052602160045260246000fd5b81526020016001151581526020018273ffffffffffffffffffffffffffffffffffffffff168152506000808773ffffffffffffffffffffffffffffffffffffffff1673ffffffffffffffffffffffffffffffffffffffff1681526020019081526020016000206000820151816000019080519060200190620013d092919062002058565b506020820151816001019080519060200190620013ef92919062002058565b5060408201518160020160006101000a81548160ff0219169083600181111562001442577f4e487b7100000000000000000000000000000000000000000000000000000000600052602160045260246000fd5b021790555060608201518160020160016101000a81548160ff02191690831515021790555060808201518160020160026101000a81548173ffffffffffffffffffffffffffffffffffffffff021916908373ffffffffffffffffffffffffffffffffffffffff1602179055509050506004859080600181540180825580915050600190039060005260206000200160009091909190916101000a81548173ffffffffffffffffffffffffffffffffffffffff021916908373ffffffffffffffffffffffffffffffffffffffff1602179055508473ffffffffffffffffffffffffffffffffffffffff167f8e18574f8a7333e6a87112742a55853a643e2f0550f4e1a3a2c3f1bb2994441d836040516200155c919062002b96565b60405180910390a25050505050565b60008060008373ffffffffffffffffffffffffffffffffffffffff1673ffffffffffffffffffffffffffffffffffffffff16815260200190815260200160002060020160019054906101000a900460ff16620015fe576040517f08c379a0000000000000000000000000000000000000000000000000000000008152600401620015f59062002c1e565b60405180910390fd5b6000808373ffffffffffffffffffffffffffffffffffffffff1673ffffffffffffffffffffffffffffffffffffffff16815260200190815260200160002060020160029054906101000a900473ffffffffffffffffffffffffffffffffffffffff169050919050565b600481815481106200167857600080fd5b906000526020600020016000915054906101000a900473ffffffffffffffffffffffffffffffffffffffff1681565b6000808373ffffffffffffffffffffffffffffffffffffffff1673ffffffffffffffffffffffffffffffffffffffff16815260200190815260200160002060020160019054906101000a900460ff1662001738576040517f08c379a00000000000000000000000000000000000000000000000000000000081526004016200172f9062002c40565b60405180910390fd5b60018081111562001772577f4e487b7100000000000000000000000000000000000000000000000000000000600052602160045260246000fd5b6000803373ffffffffffffffffffffffffffffffffffffffff1673ffffffffffffffffffffffffffffffffffffffff16815260200190815260200160002060020160009054906101000a900460ff166001811115620017fa577f4e487b7100000000000000000000000000000000000000000000000000000000600052602160045260246000fd5b146200183d576040517f08c379a0000000000000000000000000000000000000000000000000000000008152600401620018349062002c62565b60405180910390fd5b600160008373ffffffffffffffffffffffffffffffffffffffff1673ffffffffffffffffffffffffffffffffffffffff16815260200190815260200160002060003373ffffffffffffffffffffffffffffffffffffffff1673ffffffffffffffffffffffffffffffffffffffff16815260200190815260200160002060405180606001604052803373ffffffffffffffffffffffffffffffffffffffff16815260200142815260200183815250908060018154018082558091505060019003906000526020600020906003020160009091909190915060008201518160000160006101000a81548173ffffffffffffffffffffffffffffffffffffffff021916908373ffffffffffffffffffffffffffffffffffffffff1602179055506020820151816001015560408201518160020190805190602001906200198292919062002058565b5050503373ffffffffffffffffffffffffffffffffffffffff168273ffffffffffffffffffffffffffffffffffffffff167fc46393c51fb2221caaec70cc70adecd0bbd1f605f3a19747f4ec3a8aff00cf7c42604051620019e4919062002d2e565b60405180910390a35050565b600060205280600052604060002060009150905080600001805462001a159062002f7b565b80601f016020809104026020016040519081016040528092919081815260200182805462001a439062002f7b565b801562001a945780601f1062001a685761010080835404028352916020019162001a94565b820191906000526020600020905b81548152906001019060200180831162001a7657829003601f168201915b50505050509080600101805462001aab9062002f7b565b80601f016020809104026020016040519081016040528092919081815260200182805462001ad99062002f7b565b801562001b2a5780601f1062001afe5761010080835404028352916020019162001b2a565b820191906000526020600020905b81548152906001019060200180831162001b0c57829003601f168201915b5050505050908060020160009054906101000a900460ff16908060020160019054906101000a900460ff16908060020160029054906101000a900473ffffffffffffffffffffffffffffffffffffffff16905085565b60026020528160005260406000206020528060005260406000206000915091509054906101000a900460ff1681565b60608060606000600480549050905060008167ffffffffffffffff81111562001c01577f4e487b7100000000000000000000000000000000000000000000000000000000600052604160045260246000fd5b60405190808252806020026020018201604052801562001c305781602001602082028036833780820191505090505b50905060008267ffffffffffffffff81111562001c76577f4e487b7100000000000000000000000000000000000000000000000000000000600052604160045260246000fd5b60405190808252806020026020018201604052801562001cab57816020015b606081526020019060019003908162001c955790505b50905060008367ffffffffffffffff81111562001cf1577f4e487b7100000000000000000000000000000000000000000000000000000000600052604160045260246000fd5b60405190808252806020026020018201604052801562001d205781602001602082028036833780820191505090505b50905060005b84811015620020455760006004828154811062001d6c577f4e487b7100000000000000000000000000000000000000000000000000000000600052603260045260246000fd5b9060005260206000200160009054906101000a900473ffffffffffffffffffffffffffffffffffffffff1690508085838151811062001dd4577f4e487b7100000000000000000000000000000000000000000000000000000000600052603260045260246000fd5b602002602001019073ffffffffffffffffffffffffffffffffffffffff16908173ffffffffffffffffffffffffffffffffffffffff16815250506000808273ffffffffffffffffffffffffffffffffffffffff1673ffffffffffffffffffffffffffffffffffffffff168152602001908152602001600020600001805462001e5c9062002f7b565b80601f016020809104026020016040519081016040528092919081815260200182805462001e8a9062002f7b565b801562001edb5780601f1062001eaf5761010080835404028352916020019162001edb565b820191906000526020600020905b81548152906001019060200180831162001ebd57829003601f168201915b505050505084838151811062001f1a577f4e487b7100000000000000000000000000000000000000000000000000000000600052603260045260246000fd5b60200260200101819052506000808273ffffffffffffffffffffffffffffffffffffffff1673ffffffffffffffffffffffffffffffffffffffff16815260200190815260200160002060020160009054906101000a900460ff1683838151811062001fae577f4e487b7100000000000000000000000000000000000000000000000000000000600052603260045260246000fd5b6020026020010190600181111562001fef577f4e487b7100000000000000000000000000000000000000000000000000000000600052602160045260246000fd5b908160018111156200202a577f4e487b7100000000000000000000000000000000000000000000000000000000600052602160045260246000fd5b815250505080806200203c9062002fb1565b91505062001d26565b5082828296509650965050505050909192565b828054620020669062002f7b565b90600052602060002090601f0160209004810192826200208a5760008555620020d6565b82601f10620020a557805160ff1916838001178555620020d6565b82800160010185558215620020d6579182015b82811115620020d5578251825591602001919060010190620020b8565b5b509050620020e5919062002105565b5090565b611580806200312983390190565b6115a180620046a983390190565b5b808211156200212057600081600090555060010162002106565b5090565b60006200213b620021358462002d7f565b62002d4b565b9050828152602081018484840111156200215457600080fd5b6200216184828562002f36565b509392505050565b6000813590506200217a81620030e3565b92915050565b6000813590506200219181620030fd565b92915050565b600082601f830112620021a957600080fd5b8135620021bb84826020860162002124565b91505092915050565b600081359050620021d5816200310e565b92915050565b600060208284031215620021ee57600080fd5b6000620021fe8482850162002169565b91505092915050565b600080604083850312156200221b57600080fd5b60006200222b8582860162002169565b92505060206200223e8582860162002169565b9150509250929050565b6000806000606084860312156200225e57600080fd5b60006200226e8682870162002169565b9350506020620022818682870162002169565b92505060406200229486828701620021c4565b9150509250925092565b60008060408385031215620022b257600080fd5b6000620022c28582860162002169565b925050602083013567ffffffffffffffff811115620022e057600080fd5b620022ee8582860162002197565b9150509250929050565b6000806000606084860312156200230e57600080fd5b60006200231e8682870162002169565b935050602084013567ffffffffffffffff8111156200233c57600080fd5b6200234a8682870162002197565b925050604084013567ffffffffffffffff8111156200236857600080fd5b620023768682870162002197565b9150509250925092565b600080600080608085870312156200239757600080fd5b6000620023a78782880162002169565b945050602085013567ffffffffffffffff811115620023c557600080fd5b620023d38782880162002197565b935050604085013567ffffffffffffffff811115620023f157600080fd5b620023ff8782880162002197565b9250506060620024128782880162002180565b91505092959194509250565b6000602082840312156200243157600080fd5b60006200244184828501620021c4565b91505092915050565b6000620024588383620024aa565b60208301905092915050565b6000620024728383620026b3565b60208301905092915050565b60006200248c8383620026d5565b905092915050565b6000620024a28383620029d9565b905092915050565b620024b58162002ec3565b82525050565b620024c68162002ec3565b82525050565b6000620024d98262002df2565b620024e5818562002e5d565b9350620024f28362002db2565b8060005b83811015620025295781516200250d88826200244a565b97506200251a8362002e29565b925050600181019050620024f6565b5085935050505092915050565b6000620025438262002dfd565b6200254f818562002e90565b93506200255c8362002dc2565b8060005b838110156200259357815162002577888262002464565b9750620025848362002e36565b92505060018101905062002560565b5085935050505092915050565b6000620025ad8262002e08565b620025b9818562002e6e565b935083602082028501620025cd8562002dd2565b8060005b858110156200260f5784840389528151620025ed85826200247e565b9450620025fa8362002e43565b925060208a01995050600181019050620025d1565b50829750879550505050505092915050565b60006200262e8262002e13565b6200263a818562002e7f565b9350836020820285016200264e8562002de2565b8060005b858110156200269057848403895281516200266e858262002494565b94506200267b8362002e50565b925060208a0199505060018101905062002652565b50829750879550505050505092915050565b620026ad8162002ed7565b82525050565b620026be8162002f22565b82525050565b620026cf8162002f22565b82525050565b6000620026e28262002e1e565b620026ee818562002ea1565b93506200270081856020860162002f45565b6200270b81620030bb565b840191505092915050565b6000620027238262002e1e565b6200272f818562002eb2565b93506200274181856020860162002f45565b6200274c81620030bb565b840191505092915050565b60006200276660138362002eb2565b91507f55736572206e6f742072656769737465726564000000000000000000000000006000830152602082019050919050565b6000620027a860168362002eb2565b91507f50617469656e74206e6f742072656769737465726564000000000000000000006000830152602082019050919050565b6000620027ea60218362002eb2565b91507f4f6e6c7920646f63746f72732063616e206c6f67207472616e73616374696f6e60008301527f73000000000000000000000000000000000000000000000000000000000000006020830152604082019050919050565b60006200285260228362002eb2565b91507f4f6e6c792061756469742063616e20706572666f726d2074686973206163746960008301527f6f6e0000000000000000000000000000000000000000000000000000000000006020830152604082019050919050565b6000620028ba60178362002eb2565b91507f5573657220616c726561647920726567697374657265640000000000000000006000830152602082019050919050565b6000620028fc60138362002eb2565b91507f556e617574686f72697a656420616363657373000000000000000000000000006000830152602082019050919050565b60006200293e602d8362002eb2565b91507f4f6e6c7920726567697374657265642070617469656e74732063616e2067726160008301527f6e74207065726d697373696f6e000000000000000000000000000000000000006020830152604082019050919050565b6000620029a6600e8362002eb2565b91507f496e76616c696420646f63746f720000000000000000000000000000000000006000830152602082019050919050565b6000606083016000830151620029f36000860182620024aa565b50602083015162002a08602086018262002a2f565b506040830151848203604086015262002a228282620026d5565b9150508091505092915050565b62002a3a8162002f18565b82525050565b62002a4b8162002f18565b82525050565b600060208201905062002a686000830184620024bb565b92915050565b600060408201905062002a856000830185620024bb565b62002a946020830184620024bb565b9392505050565b600060608201905062002ab26000830186620024bb565b62002ac1602083018562002a40565b818103604083015262002ad5818462002716565b9050949350505050565b6000602082019050818103600083015262002afb8184620024cc565b905092915050565b6000606082019050818103600083015262002b1f8186620024cc565b9050818103602083015262002b358185620025a0565b9050818103604083015262002b4b818462002536565b9050949350505050565b6000602082019050818103600083015262002b71818462002621565b905092915050565b600060208201905062002b906000830184620026a2565b92915050565b600060208201905062002bad6000830184620026c4565b92915050565b600060a082019050818103600083015262002bcf818862002716565b9050818103602083015262002be5818762002716565b905062002bf66040830186620026c4565b62002c056060830185620026a2565b62002c146080830184620024bb565b9695505050505050565b6000602082019050818103600083015262002c398162002757565b9050919050565b6000602082019050818103600083015262002c5b8162002799565b9050919050565b6000602082019050818103600083015262002c7d81620027db565b9050919050565b6000602082019050818103600083015262002c9f8162002843565b9050919050565b6000602082019050818103600083015262002cc181620028ab565b9050919050565b6000602082019050818103600083015262002ce381620028ed565b9050919050565b6000602082019050818103600083015262002d05816200292f565b9050919050565b6000602082019050818103600083015262002d278162002997565b9050919050565b600060208201905062002d45600083018462002a40565b92915050565b6000604051905081810181811067ffffffffffffffff8211171562002d755762002d746200308c565b5b8060405250919050565b600067ffffffffffffffff82111562002d9d5762002d9c6200308c565b5b601f19601f8301169050602081019050919050565b6000819050602082019050919050565b6000819050602082019050919050565b6000819050602082019050919050565b6000819050602082019050919050565b600081519050919050565b600081519050919050565b600081519050919050565b600081519050919050565b600081519050919050565b6000602082019050919050565b6000602082019050919050565b6000602082019050919050565b6000602082019050919050565b600082825260208201905092915050565b600082825260208201905092915050565b600082825260208201905092915050565b600082825260208201905092915050565b600082825260208201905092915050565b600082825260208201905092915050565b600062002ed08262002ef8565b9050919050565b60008115159050919050565b600081905062002ef382620030cc565b919050565b600073ffffffffffffffffffffffffffffffffffffffff82169050919050565b6000819050919050565b600062002f2f8262002ee3565b9050919050565b82818337600083830152505050565b60005b8381101562002f6557808201518184015260208101905062002f48565b8381111562002f75576000848401525b50505050565b6000600282049050600182168062002f9457607f821691505b6020821081141562002fab5762002faa6200305d565b5b50919050565b600062002fbe8262002f18565b91507fffffffffffffffffffffffffffffffffffffffffffffffffffffffffffffffff82141562002ff45762002ff362002fff565b5b600182019050919050565b7f4e487b7100000000000000000000000000000000000000000000000000000000600052601160045260246000fd5b7f4e487b7100000000000000000000000000000000000000000000000000000000600052602160045260246000fd5b7f4e487b7100000000000000000000000000000000000000000000000000000000600052602260045260246000fd5b7f4e487b7100000000000000000000000000000000000000000000000000000000600052604160045260246000fd5b6000601f19601f8301169050919050565b60028110620030e057620030df6200302e565b5b50565b620030ee8162002ec3565b8114620030fa57600080fd5b50565b600281106200310b57600080fd5b50565b620031198162002f18565b81146200312557600080fd5b5056fe60806040523480156200001157600080fd5b506040516200158038038062001580833981810160405281019062000037919062000096565b80600a60006101000a81548173ffffffffffffffffffffffffffffffffffffffff021916908373ffffffffffffffffffffffffffffffffffffffff1602179055505062000110565b6000815190506200009081620000f6565b92915050565b600060208284031215620000a957600080fd5b6000620000b9848285016200007f565b91505092915050565b6000620000cf82620000d6565b9050919050565b600073ffffffffffffffffffffffffffffffffffffffff82169050919050565b6200010181620000c2565b81146200010d57600080fd5b50565b61146080620001206000396000f3fe608060405234801561001057600080fd5b50600436106100575760003560e01c806357870d5c1461005c5780637ec32d031461007a57806381f539ff146100965780638da5cb5b146100b4578063f2dbf12e146100d2575b600080fd5b6100646100f8565b6040516100719190611140565b60405180910390f35b610094600480360381019061008f9190610dd3565b61011e565b005b61009e610325565b6040516100ab9190611240565b60405180910390f35b6100bc6107da565b6040516100c99190611140565b60405180910390f35b6100da610800565b6040516100ef9998979695949392919061115b565b60405180910390f35b600a60009054906101000a900473ffffffffffffffffffffffffffffffffffffffff1681565b600a60009054906101000a900473ffffffffffffffffffffffffffffffffffffffff1673ffffffffffffffffffffffffffffffffffffffff163373ffffffffffffffffffffffffffffffffffffffff16146101ae576040517f08c379a00000000000000000000000000000000000000000000000000000000081526004016101a590611220565b60405180910390fd5b6040518061012001604052808981526020018881526020018781526020018681526020018581526020018481526020018381526020018281526020014281525060008082015181600001908051906020019061020b929190610c7c565b506020820151816001019080519060200190610228929190610c7c565b506040820151816002019080519060200190610245929190610c7c565b506060820151816003019080519060200190610262929190610c7c565b50608082015181600401908051906020019061027f929190610c7c565b5060a082015181600501908051906020019061029c929190610c7c565b5060c08201518160060190805190602001906102b9929190610c7c565b5060e08201518160070190805190602001906102d6929190610c7c565b5061010082015181600801559050507eecca9c737ac946f473dacf5e8d50ccfc7ba17798923616c10a106cffc2ee99426040516103139190611262565b60405180910390a15050505050505050565b61032d610d02565b60006040518061012001604052908160008201805461034b90611389565b80601f016020809104026020016040519081016040528092919081815260200182805461037790611389565b80156103c45780601f10610399576101008083540402835291602001916103c4565b820191906000526020600020905b8154815290600101906020018083116103a757829003601f168201915b505050505081526020016001820180546103dd90611389565b80601f016020809104026020016040519081016040528092919081815260200182805461040990611389565b80156104565780601f1061042b57610100808354040283529160200191610456565b820191906000526020600020905b81548152906001019060200180831161043957829003601f168201915b5050505050815260200160028201805461046f90611389565b80601f016020809104026020016040519081016040528092919081815260200182805461049b90611389565b80156104e85780601f106104bd576101008083540402835291602001916104e8565b820191906000526020600020905b8154815290600101906020018083116104cb57829003601f168201915b5050505050815260200160038201805461050190611389565b80601f016020809104026020016040519081016040528092919081815260200182805461052d90611389565b801561057a5780601f1061054f5761010080835404028352916020019161057a565b820191906000526020600020905b81548152906001019060200180831161055d57829003601f168201915b5050505050815260200160048201805461059390611389565b80601f01602080910402602001604051908101604052809291908181526020018280546105bf90611389565b801561060c5780601f106105e15761010080835404028352916020019161060c565b820191906000526020600020905b8154815290600101906020018083116105ef57829003601f168201915b5050505050815260200160058201805461062590611389565b80601f016020809104026020016040519081016040528092919081815260200182805461065190611389565b801561069e5780601f106106735761010080835404028352916020019161069e565b820191906000526020600020905b81548152906001019060200180831161068157829003601f168201915b505050505081526020016006820180546106b790611389565b80601f01602080910402602001604051908101604052809291908181526020018280546106e390611389565b80156107305780601f1061070557610100808354040283529160200191610730565b820191906000526020600020905b81548152906001019060200180831161071357829003601f168201915b5050505050815260200160078201805461074990611389565b80601f016020809104026020016040519081016040528092919081815260200182805461077590611389565b80156107c25780601f10610797576101008083540402835291602001916107c2565b820191906000526020600020905b8154815290600101906020018083116107a557829003601f168201915b50505050508152602001600882015481525050905090565b600960009054906101000a900473ffffffffffffffffffffffffffffffffffffffff1681565b600080600001805461081190611389565b80601f016020809104026020016040519081016040528092919081815260200182805461083d90611389565b801561088a5780601f1061085f5761010080835404028352916020019161088a565b820191906000526020600020905b81548152906001019060200180831161086d57829003601f168201915b50505050509080600101805461089f90611389565b80601f01602080910402602001604051908101604052809291908181526020018280546108cb90611389565b80156109185780601f106108ed57610100808354040283529160200191610918565b820191906000526020600020905b8154815290600101906020018083116108fb57829003601f168201915b50505050509080600201805461092d90611389565b80601f016020809104026020016040519081016040528092919081815260200182805461095990611389565b80156109a65780601f1061097b576101008083540402835291602001916109a6565b820191906000526020600020905b81548152906001019060200180831161098957829003601f168201915b5050505050908060030180546109bb90611389565b80601f01602080910402602001604051908101604052809291908181526020018280546109e790611389565b8015610a345780601f10610a0957610100808354040283529160200191610a34565b820191906000526020600020905b815481529060010190602001808311610a1757829003601f168201915b505050505090806004018054610a4990611389565b80601f0160208091040260200160405190810160405280929190818152602001828054610a7590611389565b8015610ac25780601f10610a9757610100808354040283529160200191610ac2565b820191906000526020600020905b815481529060010190602001808311610aa557829003601f168201915b505050505090806005018054610ad790611389565b80601f0160208091040260200160405190810160405280929190818152602001828054610b0390611389565b8015610b505780601f10610b2557610100808354040283529160200191610b50565b820191906000526020600020905b815481529060010190602001808311610b3357829003601f168201915b505050505090806006018054610b6590611389565b80601f0160208091040260200160405190810160405280929190818152602001828054610b9190611389565b8015610bde5780601f10610bb357610100808354040283529160200191610bde565b820191906000526020600020905b815481529060010190602001808311610bc157829003601f168201915b505050505090806007018054610bf390611389565b80601f0160208091040260200160405190810160405280929190818152602001828054610c1f90611389565b8015610c6c5780601f10610c4157610100808354040283529160200191610c6c565b820191906000526020600020905b815481529060010190602001808311610c4f57829003601f168201915b5050505050908060080154905089565b828054610c8890611389565b90600052602060002090601f016020900481019282610caa5760008555610cf1565b82601f10610cc357805160ff1916838001178555610cf1565b82800160010185558215610cf1579182015b82811115610cf0578251825591602001919060010190610cd5565b5b509050610cfe9190610d4e565b5090565b6040518061012001604052806060815260200160608152602001606081526020016060815260200160608152602001606081526020016060815260200160608152602001600081525090565b5b80821115610d67576000816000905550600101610d4f565b5090565b6000610d7e610d79846112ae565b61127d565b905082815260208101848484011115610d9657600080fd5b610da1848285611347565b509392505050565b600082601f830112610dba57600080fd5b8135610dca848260208601610d6b565b91505092915050565b600080600080600080600080610100898b031215610df057600080fd5b600089013567ffffffffffffffff811115610e0a57600080fd5b610e168b828c01610da9565b985050602089013567ffffffffffffffff811115610e3357600080fd5b610e3f8b828c01610da9565b975050604089013567ffffffffffffffff811115610e5c57600080fd5b610e688b828c01610da9565b965050606089013567ffffffffffffffff811115610e8557600080fd5b610e918b828c01610da9565b955050608089013567ffffffffffffffff811115610eae57600080fd5b610eba8b828c01610da9565b94505060a089013567ffffffffffffffff811115610ed757600080fd5b610ee38b828c01610da9565b93505060c089013567ffffffffffffffff811115610f0057600080fd5b610f0c8b828c01610da9565b92505060e089013567ffffffffffffffff811115610f2957600080fd5b610f358b828c01610da9565b9150509295985092959890939650565b610f4e8161130b565b82525050565b6000610f5f826112de565b610f6981856112e9565b9350610f79818560208601611356565b610f8281611419565b840191505092915050565b6000610f98826112de565b610fa281856112fa565b9350610fb2818560208601611356565b610fbb81611419565b840191505092915050565b6000610fd36022836112fa565b91507f4f6e6c792061756469742063616e20706572666f726d2074686973206163746960008301527f6f6e0000000000000000000000000000000000000000000000000000000000006020830152604082019050919050565b600061012083016000830151848203600086015261104a8282610f54565b915050602083015184820360208601526110648282610f54565b9150506040830151848203604086015261107e8282610f54565b915050606083015184820360608601526110988282610f54565b915050608083015184820360808601526110b28282610f54565b91505060a083015184820360a08601526110cc8282610f54565b91505060c083015184820360c08601526110e68282610f54565b91505060e083015184820360e08601526111008282610f54565b915050610100830151611117610100860182611122565b508091505092915050565b61112b8161133d565b82525050565b61113a8161133d565b82525050565b60006020820190506111556000830184610f45565b92915050565b6000610120820190508181036000830152611176818c610f8d565b9050818103602083015261118a818b610f8d565b9050818103604083015261119e818a610f8d565b905081810360608301526111b28189610f8d565b905081810360808301526111c68188610f8d565b905081810360a08301526111da8187610f8d565b905081810360c08301526111ee8186610f8d565b905081810360e08301526112028185610f8d565b9050611212610100830184611131565b9a9950505050505050505050565b6000602082019050818103600083015261123981610fc6565b9050919050565b6000602082019050818103600083015261125a818461102c565b905092915050565b60006020820190506112776000830184611131565b92915050565b6000604051905081810181811067ffffffffffffffff821117156112a4576112a36113ea565b5b8060405250919050565b600067ffffffffffffffff8211156112c9576112c86113ea565b5b601f19601f8301169050602081019050919050565b600081519050919050565b600082825260208201905092915050565b600082825260208201905092915050565b60006113168261131d565b9050919050565b600073ffffffffffffffffffffffffffffffffffffffff82169050919050565b6000819050919050565b82818337600083830152505050565b60005b83811015611374578082015181840152602081019050611359565b83811115611383576000848401525b50505050565b600060028204905060018216806113a157607f821691505b602082108114156113b5576113b46113bb565b5b50919050565b7f4e487b7100000000000000000000000000000000000000000000000000000000600052602260045260246000fd5b7f4e487b7100000000000000000000000000000000000000000000000000000000600052604160045260246000fd5b6000601f19601f830116905091905056fea2646970667358221220cfd7c92cfe98907a622fdb8402a69493d4410bae4636d62292689b12817fefd164736f6c6343000800003360806040523480156200001157600080fd5b50604051620015a1380380620015a18339818101604052810190620000379190620000d7565b816000806101000a81548173ffffffffffffffffffffffffffffffffffffffff021916908373ffffffffffffffffffffffffffffffffffffffff16021790555080600160006101000a81548173ffffffffffffffffffffffffffffffffffffffff021916908373ffffffffffffffffffffffffffffffffffffffff160217905550505062000166565b600081519050620000d1816200014c565b92915050565b60008060408385031215620000eb57600080fd5b6000620000fb85828601620000c0565b92505060206200010e85828601620000c0565b9150509250929050565b600062000125826200012c565b9050919050565b600073ffffffffffffffffffffffffffffffffffffffff82169050919050565b620001578162000118565b81146200016357600080fd5b50565b61142b80620001766000396000f3fe608060405234801561001057600080fd5b506004361061007d5760003560e01c806357870d5c1161005b57806357870d5c146100da578063babb1d41146100f8578063c1816dfb14610129578063d1312023146101595761007d565b80630cb2d0451461008257806320a517bc1461009e57806325858e89146100bc575b600080fd5b61009c60048036038101906100979190610bcc565b610175565b005b6100a6610444565b6040516100b39190611035565b60405180910390f35b6100c46105c8565b6040516100d19190610ff1565b60405180910390f35b6100e26105ec565b6040516100ef9190610ff1565b60405180910390f35b610112600480360381019061010d9190610c87565b610612565b60405161012092919061100c565b60405180910390f35b610143600480360381019061013e9190610ba3565b610686565b6040516101509190611057565b60405180910390f35b610173600480360381019061016e9190610c08565b610852565b005b600160009054906101000a900473ffffffffffffffffffffffffffffffffffffffff1673ffffffffffffffffffffffffffffffffffffffff163373ffffffffffffffffffffffffffffffffffffffff1614610205576040517f08c379a00000000000000000000000000000000000000000000000000000000081526004016101fc906110f0565b60405180910390fd5b600260008373ffffffffffffffffffffffffffffffffffffffff1673ffffffffffffffffffffffffffffffffffffffff16815260200190815260200160002060009054906101000a900460ff1615610292576040517f08c379a000000000000000000000000000000000000000000000000000000000815260040161028990611110565b60405180910390fd5b6001600260008473ffffffffffffffffffffffffffffffffffffffff1673ffffffffffffffffffffffffffffffffffffffff16815260200190815260200160002060006101000a81548160ff021916908315150217905550600460405180604001604052808473ffffffffffffffffffffffffffffffffffffffff1681526020018373ffffffffffffffffffffffffffffffffffffffff16815250908060018154018082558091505060019003906000526020600020906002020160009091909190915060008201518160000160006101000a81548173ffffffffffffffffffffffffffffffffffffffff021916908373ffffffffffffffffffffffffffffffffffffffff16021790555060208201518160010160006101000a81548173ffffffffffffffffffffffffffffffffffffffff021916908373ffffffffffffffffffffffffffffffffffffffff16021790555050508073ffffffffffffffffffffffffffffffffffffffff168273ffffffffffffffffffffffffffffffffffffffff167f0ceda602a8e00ef76afe24614343eb6c034877c816b6184d641d2d8b713a0fc660405160405180910390a35050565b6060600060048054905067ffffffffffffffff81111561048d577f4e487b7100000000000000000000000000000000000000000000000000000000600052604160045260246000fd5b6040519080825280602002602001820160405280156104bb5781602001602082028036833780820191505090505b50905060005b6004805490508110156105c05760048181548110610508577f4e487b7100000000000000000000000000000000000000000000000000000000600052603260045260246000fd5b906000526020600020906002020160000160009054906101000a900473ffffffffffffffffffffffffffffffffffffffff16828281518110610573577f4e487b7100000000000000000000000000000000000000000000000000000000600052603260045260246000fd5b602002602001019073ffffffffffffffffffffffffffffffffffffffff16908173ffffffffffffffffffffffffffffffffffffffff168152505080806105b8906112e0565b9150506104c1565b508091505090565b60008054906101000a900473ffffffffffffffffffffffffffffffffffffffff1681565b600160009054906101000a900473ffffffffffffffffffffffffffffffffffffffff1681565b6004818154811061062257600080fd5b90600052602060002090600202016000915090508060000160009054906101000a900473ffffffffffffffffffffffffffffffffffffffff16908060010160009054906101000a900473ffffffffffffffffffffffffffffffffffffffff16905082565b6060600360008373ffffffffffffffffffffffffffffffffffffffff1673ffffffffffffffffffffffffffffffffffffffff168152602001908152602001600020805480602002602001604051908101604052809291908181526020016000905b82821015610847578382906000526020600020906003020160405180606001604052908160008201805461071a906112ae565b80601f0160208091040260200160405190810160405280929190818152602001828054610746906112ae565b80156107935780601f1061076857610100808354040283529160200191610793565b820191906000526020600020905b81548152906001019060200180831161077657829003601f168201915b505050505081526020016001820180546107ac906112ae565b80601f01602080910402602001604051908101604052809291908181526020018280546107d8906112ae565b80156108255780601f106107fa57610100808354040283529160200191610825565b820191906000526020600020905b81548152906001019060200180831161080857829003601f168201915b50505050508152602001600282015481525050815260200190600101906106e7565b505050509050919050565b60008054906101000a900473ffffffffffffffffffffffffffffffffffffffff1673ffffffffffffffffffffffffffffffffffffffff163373ffffffffffffffffffffffffffffffffffffffff16146108e0576040517f08c379a00000000000000000000000000000000000000000000000000000000081526004016108d7906110d0565b60405180910390fd5b600073ffffffffffffffffffffffffffffffffffffffff168373ffffffffffffffffffffffffffffffffffffffff161415610950576040517f08c379a0000000000000000000000000000000000000000000000000000000008152600401610947906110b0565b60405180910390fd5b600360008473ffffffffffffffffffffffffffffffffffffffff1673ffffffffffffffffffffffffffffffffffffffff168152602001908152602001600020604051806060016040528084815260200183815260200142815250908060018154018082558091505060019003906000526020600020906003020160009091909190915060008201518160000190805190602001906109ef929190610a6e565b506020820151816001019080519060200190610a0c929190610a6e565b506040820151816002015550508273ffffffffffffffffffffffffffffffffffffffff167f2f82310531f67ec4eae39b4f0d4e2ea9a5e6da4bb8f084adb414ec441b761c5d8383604051610a61929190611079565b60405180910390a2505050565b828054610a7a906112ae565b90600052602060002090601f016020900481019282610a9c5760008555610ae3565b82601f10610ab557805160ff1916838001178555610ae3565b82800160010185558215610ae3579182015b82811115610ae2578251825591602001919060010190610ac7565b5b509050610af09190610af4565b5090565b5b80821115610b0d576000816000905550600101610af5565b5090565b6000610b24610b1f84611161565b611130565b905082815260208101848484011115610b3c57600080fd5b610b4784828561126c565b509392505050565b600081359050610b5e816113c7565b92915050565b600082601f830112610b7557600080fd5b8135610b85848260208601610b11565b91505092915050565b600081359050610b9d816113de565b92915050565b600060208284031215610bb557600080fd5b6000610bc384828501610b4f565b91505092915050565b60008060408385031215610bdf57600080fd5b6000610bed85828601610b4f565b9250506020610bfe85828601610b4f565b9150509250929050565b600080600060608486031215610c1d57600080fd5b6000610c2b86828701610b4f565b935050602084013567ffffffffffffffff811115610c4857600080fd5b610c5486828701610b64565b925050604084013567ffffffffffffffff811115610c7157600080fd5b610c7d86828701610b64565b9150509250925092565b600060208284031215610c9957600080fd5b6000610ca784828501610b8e565b91505092915050565b6000610cbc8383610cdc565b60208301905092915050565b6000610cd48383610f8b565b905092915050565b610ce581611230565b82525050565b610cf481611230565b82525050565b6000610d05826111b1565b610d0f81856111ec565b9350610d1a83611191565b8060005b83811015610d4b578151610d328882610cb0565b9750610d3d836111d2565b925050600181019050610d1e565b5085935050505092915050565b6000610d63826111bc565b610d6d81856111fd565b935083602082028501610d7f856111a1565b8060005b85811015610dbb5784840389528151610d9c8582610cc8565b9450610da7836111df565b925060208a01995050600181019050610d83565b50829750879550505050505092915050565b6000610dd8826111c7565b610de2818561120e565b9350610df281856020860161127b565b610dfb816113b6565b840191505092915050565b6000610e11826111c7565b610e1b818561121f565b9350610e2b81856020860161127b565b610e34816113b6565b840191505092915050565b6000610e4c60178361121f565b91507f496e76616c69642070617469656e7420616464726573730000000000000000006000830152602082019050919050565b6000610e8c60278361121f565b91507f4f6e6c792074686520646f63746f722063616e20706572666f726d207468697360008301527f20616374696f6e000000000000000000000000000000000000000000000000006020830152604082019050919050565b6000610ef260228361121f565b91507f4f6e6c792061756469742063616e20706572666f726d2074686973206163746960008301527f6f6e0000000000000000000000000000000000000000000000000000000000006020830152604082019050919050565b6000610f58601a8361121f565b91507f50617469656e7420616c726561647920617574686f72697a65640000000000006000830152602082019050919050565b60006060830160008301518482036000860152610fa88282610dcd565b91505060208301518482036020860152610fc28282610dcd565b9150506040830151610fd76040860182610fe2565b508091505092915050565b610feb81611262565b82525050565b60006020820190506110066000830184610ceb565b92915050565b60006040820190506110216000830185610ceb565b61102e6020830184610ceb565b9392505050565b6000602082019050818103600083015261104f8184610cfa565b905092915050565b600060208201905081810360008301526110718184610d58565b905092915050565b600060408201905081810360008301526110938185610e06565b905081810360208301526110a78184610e06565b90509392505050565b600060208201905081810360008301526110c981610e3f565b9050919050565b600060208201905081810360008301526110e981610e7f565b9050919050565b6000602082019050818103600083015261110981610ee5565b9050919050565b6000602082019050818103600083015261112981610f4b565b9050919050565b6000604051905081810181811067ffffffffffffffff8211171561115757611156611387565b5b8060405250919050565b600067ffffffffffffffff82111561117c5761117b611387565b5b601f19601f8301169050602081019050919050565b6000819050602082019050919050565b6000819050602082019050919050565b600081519050919050565b600081519050919050565b600081519050919050565b6000602082019050919050565b6000602082019050919050565b600082825260208201905092915050565b600082825260208201905092915050565b600082825260208201905092915050565b600082825260208201905092915050565b600061123b82611242565b9050919050565b600073ffffffffffffffffffffffffffffffffffffffff82169050919050565b6000819050919050565b82818337600083830152505050565b60005b8381101561129957808201518184015260208101905061127e565b838111156112a8576000848401525b50505050565b600060028204905060018216806112c657607f821691505b602082108114156112da576112d9611358565b5b50919050565b60006112eb82611262565b91507fffffffffffffffffffffffffffffffffffffffffffffffffffffffffffffffff82141561131e5761131d611329565b5b600182019050919050565b7f4e487b7100000000000000000000000000000000000000000000000000000000600052601160045260246000fd5b7f4e487b7100000000000000000000000000000000000000000000000000000000600052602260045260246000fd5b7f4e487b7100000000000000000000000000000000000000000000000000000000600052604160045260246000fd5b6000601f19601f8301169050919050565b6113d081611230565b81146113db57600080fd5b50565b6113e781611262565b81146113f257600080fd5b5056fea264697066735822122099bd94b24a6c31680610eab053b049ac3c422d9275ed79d7803dcdd95089b7ac64736f6c63430008000033a264697066735822122067bc32717c2a0817c466c7f0510819fc6481ffdb2380da22ee8288cba0fab84964736f6c63430008000033",
  "immutableReferences": {},
  "source": "// SPDX-License-Identifier: MIT\r\npragma solidity ^0.8.0;\r\n\r\nimport \"./PatientContract.sol\";\r\nimport \"./DoctorContract.sol\";\r\n\r\ncontract AuditContract {\r\n    enum Role { Patient, Doctor }\r\n\r\n    struct User {\r\n        string name;\r\n        string contactInfo;\r\n        Role role;\r\n        bool isRegistered;\r\n        address associatedContract; // Address of the associated PatientContract or DoctorContract\r\n    }\r\n\r\n    struct Transaction {\r\n        address doctor;\r\n        uint256 timestamp;\r\n        string details;\r\n    }\r\n\r\n    mapping(address => User) public users;\r\n    mapping(address => mapping(address => Transaction[])) public transactionHistory;\r\n    mapping(address => mapping(address => bool)) public patientPermissions;\r\n    address public auditAddress;\r\n    address[] public registeredUsers;\r\n\r\n    event UserRegistered(address indexed userAddress, Role role);\r\n    event PatientContractCreated(address indexed userAddress, address patientContract);\r\n    event DoctorContractCreated(address indexed userAddress, address doctorContract);\r\n    event TransactionLogged(address indexed patient, address indexed doctor, uint256 timestamp);\r\n\r\n    modifier onlyAudit() {\r\n        require(msg.sender == auditAddress, \"Only audit can perform this action\");\r\n        _;\r\n    }\r\n\r\n    constructor(address _auditAddress) {\r\n        auditAddress = _auditAddress;\r\n    }\r\n\r\n    function registerUser(\r\n        address _userAddress,\r\n        string memory _name,\r\n        string memory _contactInfo,\r\n        Role _role\r\n    ) public onlyAudit {\r\n        require(!users[_userAddress].isRegistered, \"User already registered\");\r\n\r\n        address associatedContract = address(0);\r\n\r\n        if (_role == Role.Patient) {\r\n            // Deploy a new PatientContract for the patient\r\n            PatientContract patientContract = new PatientContract(auditAddress);\r\n            associatedContract = address(patientContract);\r\n            emit PatientContractCreated(_userAddress, associatedContract);\r\n        } else if (_role == Role.Doctor) {\r\n            // Deploy a new DoctorContract for the doctor\r\n            DoctorContract doctorContract = new DoctorContract(_userAddress, auditAddress);\r\n            associatedContract = address(doctorContract);\r\n            emit DoctorContractCreated(_userAddress, associatedContract);\r\n        }\r\n\r\n        users[_userAddress] = User(_name, _contactInfo, _role, true, associatedContract);\r\n        registeredUsers.push(_userAddress);\r\n        emit UserRegistered(_userAddress, _role);\r\n    }\r\n\r\n    function updateUser(address _userAddress, string memory _name, string memory _contactInfo) public onlyAudit {\r\n        require(users[_userAddress].isRegistered, \"User not registered\");\r\n        users[_userAddress].name = _name;\r\n        users[_userAddress].contactInfo = _contactInfo;\r\n    }\r\n\r\n    function logTransaction(address _patient, string memory _details) public {\r\n        require(users[_patient].isRegistered, \"Patient not registered\");\r\n        require(users[msg.sender].role == Role.Doctor, \"Only doctors can log transactions\");\r\n\r\n        transactionHistory[_patient][msg.sender].push(Transaction({\r\n            doctor: msg.sender,\r\n            timestamp: block.timestamp,\r\n            details: _details\r\n        }));\r\n\r\n        emit TransactionLogged(_patient, msg.sender, block.timestamp);\r\n    }\r\n\r\n    function getTransactionHistory(address _patient, address _doctor) public view returns (Transaction[] memory) {\r\n        require(\r\n            msg.sender == auditAddress || msg.sender == _patient || msg.sender == _doctor,\r\n            \"Unauthorized access\"\r\n        );\r\n        return transactionHistory[_patient][_doctor];\r\n    }\r\n\r\n    function getAssociatedContract(address _userAddress) public view returns (address) {\r\n        require(users[_userAddress].isRegistered, \"User not registered\");\r\n        return users[_userAddress].associatedContract;\r\n    }\r\n\r\n    function getAllUsers() public view returns (address[] memory, string[] memory, Role[] memory) {\r\n        uint256 userCount = registeredUsers.length;\r\n\r\n        address[] memory addresses = new address[](userCount);\r\n        string[] memory names = new string[](userCount);\r\n        Role[] memory roles = new Role[](userCount);\r\n\r\n        for (uint256 i = 0; i < userCount; i++) {\r\n            address userAddress = registeredUsers[i];\r\n            addresses[i] = userAddress;\r\n            names[i] = users[userAddress].name;\r\n            roles[i] = users[userAddress].role;\r\n        }\r\n\r\n        return (addresses, names, roles);\r\n    }\r\n\r\n    function grantPermission(address _doctor) public {\r\n        require(users[msg.sender].isRegistered, \"Only registered patients can grant permission\");\r\n        require(users[_doctor].isRegistered && users[_doctor].role == Role.Doctor, \"Invalid doctor\");\r\n        patientPermissions[msg.sender][_doctor] = true;\r\n    }\r\n\r\n    function getPermittedPatients(address _doctor) public view returns (address[] memory) {\r\n        address[] memory permittedPatients = new address[](registeredUsers.length);\r\n        uint count = 0;\r\n        for (uint i = 0; i < registeredUsers.length; i++) {\r\n            if (patientPermissions[registeredUsers[i]][_doctor]) {\r\n                permittedPatients[count] = registeredUsers[i];\r\n                count++;\r\n            }\r\n        }\r\n        address[] memory result = new address[](count);\r\n        for (uint i = 0; i < count; i++) {\r\n            result[i] = permittedPatients[i];\r\n        }\r\n        return result;\r\n    }\r\n\r\n    \r\n}\r\n",
  "sourcePath": "C:\\Users\\IMANE\\Desktop\\Blockchain\\blockchain_project\\contracts\\AuditContract.sol",
  "compiler": {
    "name": "solc",
    "version": "0.8.0+commit.c7dfd78e.Emscripten.clang"
  },
  "schemaVersion": "3.4.16",
  "updatedAt": "2024-12-16T18:40:22.775Z",
  "networkType": "ethereum",
  "devdoc": {
    "kind": "dev",
    "methods": {},
    "version": 1
  },
  "userdoc": {
    "kind": "user",
    "methods": {},
    "version": 1
  }
}