{
  "contractName": "AuditContract",
  "abi": [
    {
      "inputs": [
        {
          "internalType": "address",
          "name": "_auditAddress",
          "type": "address"
        }
      ],
      "stateMutability": "nonpayable",
      "type": "constructor"
    },
    {
      "anonymous": false,
      "inputs": [
        {
          "indexed": true,
          "internalType": "address",
          "name": "patient",
          "type": "address"
        },
        {
          "indexed": true,
          "internalType": "address",
          "name": "doctor",
          "type": "address"
        },
        {
          "indexed": false,
          "internalType": "uint256",
          "name": "timestamp",
          "type": "uint256"
        }
      ],
      "name": "TransactionLogged",
      "type": "event"
    },
    {
      "anonymous": false,
      "inputs": [
        {
          "indexed": true,
          "internalType": "address",
          "name": "userAddress",
          "type": "address"
        },
        {
          "indexed": false,
          "internalType": "enum AuditContract.Role",
          "name": "role",
          "type": "uint8"
        }
      ],
      "name": "UserRegistered",
      "type": "event"
    },
    {
      "inputs": [],
      "name": "auditAddress",
      "outputs": [
        {
          "internalType": "address",
          "name": "",
          "type": "address"
        }
      ],
      "stateMutability": "view",
      "type": "function",
      "constant": true
    },
    {
      "inputs": [
        {
          "internalType": "address",
          "name": "",
          "type": "address"
        },
        {
          "internalType": "address",
          "name": "",
          "type": "address"
        },
        {
          "internalType": "uint256",
          "name": "",
          "type": "uint256"
        }
      ],
      "name": "transactionHistory",
      "outputs": [
        {
          "internalType": "address",
          "name": "doctor",
          "type": "address"
        },
        {
          "internalType": "uint256",
          "name": "timestamp",
          "type": "uint256"
        },
        {
          "internalType": "string",
          "name": "details",
          "type": "string"
        }
      ],
      "stateMutability": "view",
      "type": "function",
      "constant": true
    },
    {
      "inputs": [
        {
          "internalType": "address",
          "name": "",
          "type": "address"
        }
      ],
      "name": "users",
      "outputs": [
        {
          "internalType": "string",
          "name": "name",
          "type": "string"
        },
        {
          "internalType": "string",
          "name": "contactInfo",
          "type": "string"
        },
        {
          "internalType": "enum AuditContract.Role",
          "name": "role",
          "type": "uint8"
        },
        {
          "internalType": "bool",
          "name": "isRegistered",
          "type": "bool"
        }
      ],
      "stateMutability": "view",
      "type": "function",
      "constant": true
    },
    {
      "inputs": [
        {
          "internalType": "address",
          "name": "_userAddress",
          "type": "address"
        },
        {
          "internalType": "string",
          "name": "_name",
          "type": "string"
        },
        {
          "internalType": "string",
          "name": "_contactInfo",
          "type": "string"
        },
        {
          "internalType": "enum AuditContract.Role",
          "name": "_role",
          "type": "uint8"
        }
      ],
      "name": "registerUser",
      "outputs": [],
      "stateMutability": "nonpayable",
      "type": "function"
    },
    {
      "inputs": [
        {
          "internalType": "address",
          "name": "_userAddress",
          "type": "address"
        },
        {
          "internalType": "string",
          "name": "_name",
          "type": "string"
        },
        {
          "internalType": "string",
          "name": "_contactInfo",
          "type": "string"
        }
      ],
      "name": "updateUser",
      "outputs": [],
      "stateMutability": "nonpayable",
      "type": "function"
    },
    {
      "inputs": [
        {
          "internalType": "address",
          "name": "_patient",
          "type": "address"
        },
        {
          "internalType": "string",
          "name": "_details",
          "type": "string"
        }
      ],
      "name": "logTransaction",
      "outputs": [],
      "stateMutability": "nonpayable",
      "type": "function"
    },
    {
      "inputs": [
        {
          "internalType": "address",
          "name": "_patient",
          "type": "address"
        },
        {
          "internalType": "address",
          "name": "_doctor",
          "type": "address"
        }
      ],
      "name": "getTransactionHistory",
      "outputs": [
        {
          "components": [
            {
              "internalType": "address",
              "name": "doctor",
              "type": "address"
            },
            {
              "internalType": "uint256",
              "name": "timestamp",
              "type": "uint256"
            },
            {
              "internalType": "string",
              "name": "details",
              "type": "string"
            }
          ],
          "internalType": "struct AuditContract.Transaction[]",
          "name": "",
          "type": "tuple[]"
        }
      ],
      "stateMutability": "view",
      "type": "function",
      "constant": true
    }
  ],
  "bytecode": "0x60806040523480156200001157600080fd5b5060405162001b2238038062001b22833981810160405281019062000037919062000096565b80600260006101000a81548173ffffffffffffffffffffffffffffffffffffffff021916908373ffffffffffffffffffffffffffffffffffffffff1602179055505062000110565b6000815190506200009081620000f6565b92915050565b600060208284031215620000a957600080fd5b6000620000b9848285016200007f565b91505092915050565b6000620000cf82620000d6565b9050919050565b600073ffffffffffffffffffffffffffffffffffffffff82169050919050565b6200010181620000c2565b81146200010d57600080fd5b50565b611a0280620001206000396000f3fe608060405234801561001057600080fd5b506004361061007d5760003560e01c806357870d5c1161005b57806357870d5c146101005780636f8826ed1461011e578063818517c31461013a578063a87430ba146101565761007d565b806310e8b22d1461008257806315da4e391461009e5780634955361a146100ce575b600080fd5b61009c600480360381019061009791906110ed565b610189565b005b6100b860048036038101906100b3919061100e565b610358565b6040516100c591906115c9565b60405180910390f35b6100e860048036038101906100e3919061104a565b610622565b6040516100f79392919061158b565b60405180910390f35b61010861071e565b6040516101159190611570565b60405180910390f35b6101386004803603810190610133919061116c565b610744565b005b610154600480360381019061014f9190611099565b610a04565b005b610170600480360381019061016b9190610fe5565b610d41565b6040516101809493929190611606565b60405180910390f35b600260009054906101000a900473ffffffffffffffffffffffffffffffffffffffff1673ffffffffffffffffffffffffffffffffffffffff163373ffffffffffffffffffffffffffffffffffffffff1614610219576040517f08c379a0000000000000000000000000000000000000000000000000000000008152600401610210906116b9565b60405180910390fd5b6000808473ffffffffffffffffffffffffffffffffffffffff1673ffffffffffffffffffffffffffffffffffffffff16815260200190815260200160002060020160019054906101000a900460ff166102a7576040517f08c379a000000000000000000000000000000000000000000000000000000000815260040161029e90611659565b60405180910390fd5b816000808573ffffffffffffffffffffffffffffffffffffffff1673ffffffffffffffffffffffffffffffffffffffff16815260200190815260200160002060000190805190602001906102fc929190610e9b565b50806000808573ffffffffffffffffffffffffffffffffffffffff1673ffffffffffffffffffffffffffffffffffffffff1681526020019081526020016000206001019080519060200190610352929190610e9b565b50505050565b6060600260009054906101000a900473ffffffffffffffffffffffffffffffffffffffff1673ffffffffffffffffffffffffffffffffffffffff163373ffffffffffffffffffffffffffffffffffffffff1614806103e157508273ffffffffffffffffffffffffffffffffffffffff163373ffffffffffffffffffffffffffffffffffffffff16145b8061041757508173ffffffffffffffffffffffffffffffffffffffff163373ffffffffffffffffffffffffffffffffffffffff16145b610456576040517f08c379a000000000000000000000000000000000000000000000000000000000815260040161044d906116f9565b60405180910390fd5b600160008473ffffffffffffffffffffffffffffffffffffffff1673ffffffffffffffffffffffffffffffffffffffff16815260200190815260200160002060008373ffffffffffffffffffffffffffffffffffffffff1673ffffffffffffffffffffffffffffffffffffffff168152602001908152602001600020805480602002602001604051908101604052809291908181526020016000905b8282101561061657838290600052602060002090600302016040518060600160405290816000820160009054906101000a900473ffffffffffffffffffffffffffffffffffffffff1673ffffffffffffffffffffffffffffffffffffffff1673ffffffffffffffffffffffffffffffffffffffff16815260200160018201548152602001600282018054610585906118aa565b80601f01602080910402602001604051908101604052809291908181526020018280546105b1906118aa565b80156105fe5780601f106105d3576101008083540402835291602001916105fe565b820191906000526020600020905b8154815290600101906020018083116105e157829003601f168201915b505050505081525050815260200190600101906104f2565b50505050905092915050565b6001602052826000526040600020602052816000526040600020818154811061064a57600080fd5b906000526020600020906003020160009250925050508060000160009054906101000a900473ffffffffffffffffffffffffffffffffffffffff169080600101549080600201805461069b906118aa565b80601f01602080910402602001604051908101604052809291908181526020018280546106c7906118aa565b80156107145780601f106106e957610100808354040283529160200191610714565b820191906000526020600020905b8154815290600101906020018083116106f757829003601f168201915b5050505050905083565b600260009054906101000a900473ffffffffffffffffffffffffffffffffffffffff1681565b600260009054906101000a900473ffffffffffffffffffffffffffffffffffffffff1673ffffffffffffffffffffffffffffffffffffffff163373ffffffffffffffffffffffffffffffffffffffff16146107d4576040517f08c379a00000000000000000000000000000000000000000000000000000000081526004016107cb906116b9565b60405180910390fd5b6000808573ffffffffffffffffffffffffffffffffffffffff1673ffffffffffffffffffffffffffffffffffffffff16815260200190815260200160002060020160019054906101000a900460ff1615610863576040517f08c379a000000000000000000000000000000000000000000000000000000000815260040161085a906116d9565b60405180910390fd5b60405180608001604052808481526020018381526020018260018111156108b3577f4e487b7100000000000000000000000000000000000000000000000000000000600052602160045260246000fd5b8152602001600115158152506000808673ffffffffffffffffffffffffffffffffffffffff1673ffffffffffffffffffffffffffffffffffffffff1681526020019081526020016000206000820151816000019080519060200190610919929190610e9b565b506020820151816001019080519060200190610936929190610e9b565b5060408201518160020160006101000a81548160ff02191690836001811115610988577f4e487b7100000000000000000000000000000000000000000000000000000000600052602160045260246000fd5b021790555060608201518160020160016101000a81548160ff0219169083151502179055509050508373ffffffffffffffffffffffffffffffffffffffff167f8e18574f8a7333e6a87112742a55853a643e2f0550f4e1a3a2c3f1bb2994441d826040516109f691906115eb565b60405180910390a250505050565b6000808373ffffffffffffffffffffffffffffffffffffffff1673ffffffffffffffffffffffffffffffffffffffff16815260200190815260200160002060020160019054906101000a900460ff16610a92576040517f08c379a0000000000000000000000000000000000000000000000000000000008152600401610a8990611679565b60405180910390fd5b600180811115610acb577f4e487b7100000000000000000000000000000000000000000000000000000000600052602160045260246000fd5b6000803373ffffffffffffffffffffffffffffffffffffffff1673ffffffffffffffffffffffffffffffffffffffff16815260200190815260200160002060020160009054906101000a900460ff166001811115610b52577f4e487b7100000000000000000000000000000000000000000000000000000000600052602160045260246000fd5b14610b92576040517f08c379a0000000000000000000000000000000000000000000000000000000008152600401610b8990611699565b60405180910390fd5b600160008373ffffffffffffffffffffffffffffffffffffffff1673ffffffffffffffffffffffffffffffffffffffff16815260200190815260200160002060003373ffffffffffffffffffffffffffffffffffffffff1673ffffffffffffffffffffffffffffffffffffffff16815260200190815260200160002060405180606001604052803373ffffffffffffffffffffffffffffffffffffffff16815260200142815260200183815250908060018154018082558091505060019003906000526020600020906003020160009091909190915060008201518160000160006101000a81548173ffffffffffffffffffffffffffffffffffffffff021916908373ffffffffffffffffffffffffffffffffffffffff160217905550602082015181600101556040820151816002019080519060200190610cd5929190610e9b565b5050503373ffffffffffffffffffffffffffffffffffffffff168273ffffffffffffffffffffffffffffffffffffffff167fc46393c51fb2221caaec70cc70adecd0bbd1f605f3a19747f4ec3a8aff00cf7c42604051610d359190611719565b60405180910390a35050565b6000602052806000526040600020600091509050806000018054610d64906118aa565b80601f0160208091040260200160405190810160405280929190818152602001828054610d90906118aa565b8015610ddd5780601f10610db257610100808354040283529160200191610ddd565b820191906000526020600020905b815481529060010190602001808311610dc057829003601f168201915b505050505090806001018054610df2906118aa565b80601f0160208091040260200160405190810160405280929190818152602001828054610e1e906118aa565b8015610e6b5780601f10610e4057610100808354040283529160200191610e6b565b820191906000526020600020905b815481529060010190602001808311610e4e57829003601f168201915b5050505050908060020160009054906101000a900460ff16908060020160019054906101000a900460ff16905084565b828054610ea7906118aa565b90600052602060002090601f016020900481019282610ec95760008555610f10565b82601f10610ee257805160ff1916838001178555610f10565b82800160010185558215610f10579182015b82811115610f0f578251825591602001919060010190610ef4565b5b509050610f1d9190610f21565b5090565b5b80821115610f3a576000816000905550600101610f22565b5090565b6000610f51610f4c84611765565b611734565b905082815260208101848484011115610f6957600080fd5b610f74848285611868565b509392505050565b600081359050610f8b8161198e565b92915050565b600081359050610fa0816119a5565b92915050565b600082601f830112610fb757600080fd5b8135610fc7848260208601610f3e565b91505092915050565b600081359050610fdf816119b5565b92915050565b600060208284031215610ff757600080fd5b600061100584828501610f7c565b91505092915050565b6000806040838503121561102157600080fd5b600061102f85828601610f7c565b925050602061104085828601610f7c565b9150509250929050565b60008060006060848603121561105f57600080fd5b600061106d86828701610f7c565b935050602061107e86828701610f7c565b925050604061108f86828701610fd0565b9150509250925092565b600080604083850312156110ac57600080fd5b60006110ba85828601610f7c565b925050602083013567ffffffffffffffff8111156110d757600080fd5b6110e385828601610fa6565b9150509250929050565b60008060006060848603121561110257600080fd5b600061111086828701610f7c565b935050602084013567ffffffffffffffff81111561112d57600080fd5b61113986828701610fa6565b925050604084013567ffffffffffffffff81111561115657600080fd5b61116286828701610fa6565b9150509250925092565b6000806000806080858703121561118257600080fd5b600061119087828801610f7c565b945050602085013567ffffffffffffffff8111156111ad57600080fd5b6111b987828801610fa6565b935050604085013567ffffffffffffffff8111156111d657600080fd5b6111e287828801610fa6565b92505060606111f387828801610f91565b91505092959194509250565b600061120b8383611502565b905092915050565b61121c816117fb565b82525050565b61122b816117fb565b82525050565b600061123c826117a5565b61124681856117c8565b93508360208202850161125885611795565b8060005b85811015611294578484038952815161127585826111ff565b9450611280836117bb565b925060208a0199505060018101905061125c565b50829750879550505050505092915050565b6112af8161180d565b82525050565b6112be81611856565b82525050565b60006112cf826117b0565b6112d981856117d9565b93506112e9818560208601611877565b6112f281611969565b840191505092915050565b6000611308826117b0565b61131281856117ea565b9350611322818560208601611877565b61132b81611969565b840191505092915050565b60006113436013836117ea565b91507f55736572206e6f742072656769737465726564000000000000000000000000006000830152602082019050919050565b60006113836016836117ea565b91507f50617469656e74206e6f742072656769737465726564000000000000000000006000830152602082019050919050565b60006113c36021836117ea565b91507f4f6e6c7920646f63746f72732063616e206c6f67207472616e73616374696f6e60008301527f73000000000000000000000000000000000000000000000000000000000000006020830152604082019050919050565b60006114296022836117ea565b91507f4f6e6c792061756469742063616e20706572666f726d2074686973206163746960008301527f6f6e0000000000000000000000000000000000000000000000000000000000006020830152604082019050919050565b600061148f6017836117ea565b91507f5573657220616c726561647920726567697374657265640000000000000000006000830152602082019050919050565b60006114cf6013836117ea565b91507f556e617574686f72697a656420616363657373000000000000000000000000006000830152602082019050919050565b600060608301600083015161151a6000860182611213565b50602083015161152d6020860182611552565b506040830151848203604086015261154582826112c4565b9150508091505092915050565b61155b8161184c565b82525050565b61156a8161184c565b82525050565b60006020820190506115856000830184611222565b92915050565b60006060820190506115a06000830186611222565b6115ad6020830185611561565b81810360408301526115bf81846112fd565b9050949350505050565b600060208201905081810360008301526115e38184611231565b905092915050565b600060208201905061160060008301846112b5565b92915050565b6000608082019050818103600083015261162081876112fd565b9050818103602083015261163481866112fd565b905061164360408301856112b5565b61165060608301846112a6565b95945050505050565b6000602082019050818103600083015261167281611336565b9050919050565b6000602082019050818103600083015261169281611376565b9050919050565b600060208201905081810360008301526116b2816113b6565b9050919050565b600060208201905081810360008301526116d28161141c565b9050919050565b600060208201905081810360008301526116f281611482565b9050919050565b60006020820190508181036000830152611712816114c2565b9050919050565b600060208201905061172e6000830184611561565b92915050565b6000604051905081810181811067ffffffffffffffff8211171561175b5761175a61193a565b5b8060405250919050565b600067ffffffffffffffff8211156117805761177f61193a565b5b601f19601f8301169050602081019050919050565b6000819050602082019050919050565b600081519050919050565b600081519050919050565b6000602082019050919050565b600082825260208201905092915050565b600082825260208201905092915050565b600082825260208201905092915050565b60006118068261182c565b9050919050565b60008115159050919050565b60008190506118278261197a565b919050565b600073ffffffffffffffffffffffffffffffffffffffff82169050919050565b6000819050919050565b600061186182611819565b9050919050565b82818337600083830152505050565b60005b8381101561189557808201518184015260208101905061187a565b838111156118a4576000848401525b50505050565b600060028204905060018216806118c257607f821691505b602082108114156118d6576118d561190b565b5b50919050565b7f4e487b7100000000000000000000000000000000000000000000000000000000600052602160045260246000fd5b7f4e487b7100000000000000000000000000000000000000000000000000000000600052602260045260246000fd5b7f4e487b7100000000000000000000000000000000000000000000000000000000600052604160045260246000fd5b6000601f19601f8301169050919050565b6002811061198b5761198a6118dc565b5b50565b611997816117fb565b81146119a257600080fd5b50565b600281106119b257600080fd5b50565b6119be8161184c565b81146119c957600080fd5b5056fea264697066735822122034c70d3eb14bbf5f32ce755ed03c4718a3ed14d804298805a4cb6a176cec036064736f6c63430008000033",
  "immutableReferences": {},
  "source": "// SPDX-License-Identifier: MIT\r\npragma solidity ^0.8.0;\r\n\r\ncontract AuditContract {\r\n    enum Role {Patient, Doctor}\r\n\r\n    mapping(address => User) public users;\r\n    mapping(address => mapping(address => Transaction[])) public transactionHistory;\r\n    address public auditAddress;\r\n\r\n    struct User {\r\n        string name;\r\n        string contactInfo;\r\n        Role role;\r\n        bool isRegistered;\r\n    }\r\n\r\n    struct Transaction {\r\n        address doctor;\r\n        uint256 timestamp;\r\n        string details;\r\n    }\r\n\r\n    event UserRegistered(address indexed userAddress, Role role);\r\n    event TransactionLogged(address indexed patient, address indexed doctor, uint256 timestamp);\r\n\r\n    modifier onlyAudit() {\r\n        require(msg.sender == auditAddress, \"Only audit can perform this action\");\r\n        _;\r\n    }\r\n\r\n    constructor(address _auditAddress) {\r\n        auditAddress = _auditAddress;\r\n    }\r\n\r\n    function registerUser(address _userAddress, string memory _name, string memory _contactInfo, Role _role) public onlyAudit {\r\n        require(!users[_userAddress].isRegistered, \"User already registered\");\r\n        users[_userAddress] = User(_name, _contactInfo, _role, true);\r\n        emit UserRegistered(_userAddress, _role);\r\n    }\r\n\r\n    function updateUser(address _userAddress, string memory _name, string memory _contactInfo) public onlyAudit {\r\n        require(users[_userAddress].isRegistered, \"User not registered\");\r\n        users[_userAddress].name = _name;\r\n        users[_userAddress].contactInfo = _contactInfo;\r\n    }\r\n\r\n    function logTransaction(address _patient, string memory _details) public {\r\n        require(users[_patient].isRegistered, \"Patient not registered\");\r\n        require(users[msg.sender].role == Role.Doctor, \"Only doctors can log transactions\");\r\n\r\n        transactionHistory[_patient][msg.sender].push(Transaction({\r\n            doctor: msg.sender,\r\n            timestamp: block.timestamp,\r\n            details: _details\r\n        }));\r\n\r\n        emit TransactionLogged(_patient, msg.sender, block.timestamp);\r\n    }\r\n\r\n    function getTransactionHistory(address _patient, address _doctor) public view returns (Transaction[] memory) {\r\n        require(\r\n            msg.sender == auditAddress || msg.sender == _patient || msg.sender == _doctor, \r\n            \"Unauthorized access\"\r\n        );\r\n        return transactionHistory[_patient][_doctor];\r\n    }\r\n}\r\n",
  "sourcePath": "C:\\Users\\LOUBNA\\Desktop\\medical-app\\contracts\\AuditContract.sol",
  "compiler": {
    "name": "solc",
    "version": "0.8.0+commit.c7dfd78e.Emscripten.clang"
  },
  "schemaVersion": "3.4.16",
  "updatedAt": "2024-12-05T20:02:30.243Z",
  "networkType": "ethereum",
  "devdoc": {
    "kind": "dev",
    "methods": {},
    "version": 1
  },
  "userdoc": {
    "kind": "user",
    "methods": {},
    "version": 1
  }
}