{
  "contractName": "DoctorContract",
  "abi": [
    {
      "inputs": [
        {
          "internalType": "address",
          "name": "_doctorAddress",
          "type": "address"
        },
        {
          "internalType": "address",
          "name": "_auditAddress",
          "type": "address"
        }
      ],
      "stateMutability": "nonpayable",
      "type": "constructor"
    },
    {
      "anonymous": false,
      "inputs": [
        {
          "indexed": true,
          "internalType": "address",
          "name": "patientAddress",
          "type": "address"
        },
        {
          "indexed": false,
          "internalType": "string",
          "name": "fileName",
          "type": "string"
        },
        {
          "indexed": false,
          "internalType": "string",
          "name": "fileHash",
          "type": "string"
        }
      ],
      "name": "FileUploaded",
      "type": "event"
    },
    {
      "anonymous": false,
      "inputs": [
        {
          "indexed": true,
          "internalType": "address",
          "name": "patientAddress",
          "type": "address"
        },
        {
          "indexed": true,
          "internalType": "address",
          "name": "patientContract",
          "type": "address"
        }
      ],
      "name": "PermissionGranted",
      "type": "event"
    },
    {
      "inputs": [],
      "name": "auditAddress",
      "outputs": [
        {
          "internalType": "address",
          "name": "",
          "type": "address"
        }
      ],
      "stateMutability": "view",
      "type": "function"
    },
    {
      "inputs": [],
      "name": "doctorAddress",
      "outputs": [
        {
          "internalType": "address",
          "name": "",
          "type": "address"
        }
      ],
      "stateMutability": "view",
      "type": "function"
    },
    {
      "inputs": [
        {
          "internalType": "uint256",
          "name": "",
          "type": "uint256"
        }
      ],
      "name": "patientList",
      "outputs": [
        {
          "internalType": "address",
          "name": "patientAddress",
          "type": "address"
        },
        {
          "internalType": "address",
          "name": "patientContract",
          "type": "address"
        }
      ],
      "stateMutability": "view",
      "type": "function"
    },
    {
      "inputs": [
        {
          "internalType": "address",
          "name": "_patientAddress",
          "type": "address"
        },
        {
          "internalType": "address",
          "name": "_patientContract",
          "type": "address"
        }
      ],
      "name": "addPatient",
      "outputs": [],
      "stateMutability": "nonpayable",
      "type": "function"
    },
    {
      "inputs": [
        {
          "internalType": "address",
          "name": "_patientAddress",
          "type": "address"
        },
        {
          "internalType": "string",
          "name": "_fileName",
          "type": "string"
        },
        {
          "internalType": "string",
          "name": "_fileHash",
          "type": "string"
        }
      ],
      "name": "uploadFile",
      "outputs": [],
      "stateMutability": "nonpayable",
      "type": "function"
    },
    {
      "inputs": [
        {
          "internalType": "address",
          "name": "_patientAddress",
          "type": "address"
        }
      ],
      "name": "getPatientFiles",
      "outputs": [
        {
          "components": [
            {
              "internalType": "string",
              "name": "fileName",
              "type": "string"
            },
            {
              "internalType": "string",
              "name": "fileHash",
              "type": "string"
            },
            {
              "internalType": "uint256",
              "name": "timestamp",
              "type": "uint256"
            }
          ],
          "internalType": "struct DoctorContract.File[]",
          "name": "",
          "type": "tuple[]"
        }
      ],
      "stateMutability": "view",
      "type": "function"
    },
    {
      "inputs": [],
      "name": "getAuthorizedPatients",
      "outputs": [
        {
          "internalType": "address[]",
          "name": "",
          "type": "address[]"
        }
      ],
      "stateMutability": "view",
      "type": "function"
    }
  ],
  "bytecode": "0x60806040523480156200001157600080fd5b50604051620015a1380380620015a18339818101604052810190620000379190620000d7565b816000806101000a81548173ffffffffffffffffffffffffffffffffffffffff021916908373ffffffffffffffffffffffffffffffffffffffff16021790555080600160006101000a81548173ffffffffffffffffffffffffffffffffffffffff021916908373ffffffffffffffffffffffffffffffffffffffff160217905550505062000166565b600081519050620000d1816200014c565b92915050565b60008060408385031215620000eb57600080fd5b6000620000fb85828601620000c0565b92505060206200010e85828601620000c0565b9150509250929050565b600062000125826200012c565b9050919050565b600073ffffffffffffffffffffffffffffffffffffffff82169050919050565b620001578162000118565b81146200016357600080fd5b50565b61142b80620001766000396000f3fe608060405234801561001057600080fd5b506004361061007d5760003560e01c806357870d5c1161005b57806357870d5c146100da578063babb1d41146100f8578063c1816dfb14610129578063d1312023146101595761007d565b80630cb2d0451461008257806320a517bc1461009e57806325858e89146100bc575b600080fd5b61009c60048036038101906100979190610bcc565b610175565b005b6100a6610444565b6040516100b39190611035565b60405180910390f35b6100c46105c8565b6040516100d19190610ff1565b60405180910390f35b6100e26105ec565b6040516100ef9190610ff1565b60405180910390f35b610112600480360381019061010d9190610c87565b610612565b60405161012092919061100c565b60405180910390f35b610143600480360381019061013e9190610ba3565b610686565b6040516101509190611057565b60405180910390f35b610173600480360381019061016e9190610c08565b610852565b005b600160009054906101000a900473ffffffffffffffffffffffffffffffffffffffff1673ffffffffffffffffffffffffffffffffffffffff163373ffffffffffffffffffffffffffffffffffffffff1614610205576040517f08c379a00000000000000000000000000000000000000000000000000000000081526004016101fc906110f0565b60405180910390fd5b600260008373ffffffffffffffffffffffffffffffffffffffff1673ffffffffffffffffffffffffffffffffffffffff16815260200190815260200160002060009054906101000a900460ff1615610292576040517f08c379a000000000000000000000000000000000000000000000000000000000815260040161028990611110565b60405180910390fd5b6001600260008473ffffffffffffffffffffffffffffffffffffffff1673ffffffffffffffffffffffffffffffffffffffff16815260200190815260200160002060006101000a81548160ff021916908315150217905550600460405180604001604052808473ffffffffffffffffffffffffffffffffffffffff1681526020018373ffffffffffffffffffffffffffffffffffffffff16815250908060018154018082558091505060019003906000526020600020906002020160009091909190915060008201518160000160006101000a81548173ffffffffffffffffffffffffffffffffffffffff021916908373ffffffffffffffffffffffffffffffffffffffff16021790555060208201518160010160006101000a81548173ffffffffffffffffffffffffffffffffffffffff021916908373ffffffffffffffffffffffffffffffffffffffff16021790555050508073ffffffffffffffffffffffffffffffffffffffff168273ffffffffffffffffffffffffffffffffffffffff167f0ceda602a8e00ef76afe24614343eb6c034877c816b6184d641d2d8b713a0fc660405160405180910390a35050565b6060600060048054905067ffffffffffffffff81111561048d577f4e487b7100000000000000000000000000000000000000000000000000000000600052604160045260246000fd5b6040519080825280602002602001820160405280156104bb5781602001602082028036833780820191505090505b50905060005b6004805490508110156105c05760048181548110610508577f4e487b7100000000000000000000000000000000000000000000000000000000600052603260045260246000fd5b906000526020600020906002020160000160009054906101000a900473ffffffffffffffffffffffffffffffffffffffff16828281518110610573577f4e487b7100000000000000000000000000000000000000000000000000000000600052603260045260246000fd5b602002602001019073ffffffffffffffffffffffffffffffffffffffff16908173ffffffffffffffffffffffffffffffffffffffff168152505080806105b8906112e0565b9150506104c1565b508091505090565b60008054906101000a900473ffffffffffffffffffffffffffffffffffffffff1681565b600160009054906101000a900473ffffffffffffffffffffffffffffffffffffffff1681565b6004818154811061062257600080fd5b90600052602060002090600202016000915090508060000160009054906101000a900473ffffffffffffffffffffffffffffffffffffffff16908060010160009054906101000a900473ffffffffffffffffffffffffffffffffffffffff16905082565b6060600360008373ffffffffffffffffffffffffffffffffffffffff1673ffffffffffffffffffffffffffffffffffffffff168152602001908152602001600020805480602002602001604051908101604052809291908181526020016000905b82821015610847578382906000526020600020906003020160405180606001604052908160008201805461071a906112ae565b80601f0160208091040260200160405190810160405280929190818152602001828054610746906112ae565b80156107935780601f1061076857610100808354040283529160200191610793565b820191906000526020600020905b81548152906001019060200180831161077657829003601f168201915b505050505081526020016001820180546107ac906112ae565b80601f01602080910402602001604051908101604052809291908181526020018280546107d8906112ae565b80156108255780601f106107fa57610100808354040283529160200191610825565b820191906000526020600020905b81548152906001019060200180831161080857829003601f168201915b50505050508152602001600282015481525050815260200190600101906106e7565b505050509050919050565b60008054906101000a900473ffffffffffffffffffffffffffffffffffffffff1673ffffffffffffffffffffffffffffffffffffffff163373ffffffffffffffffffffffffffffffffffffffff16146108e0576040517f08c379a00000000000000000000000000000000000000000000000000000000081526004016108d7906110d0565b60405180910390fd5b600073ffffffffffffffffffffffffffffffffffffffff168373ffffffffffffffffffffffffffffffffffffffff161415610950576040517f08c379a0000000000000000000000000000000000000000000000000000000008152600401610947906110b0565b60405180910390fd5b600360008473ffffffffffffffffffffffffffffffffffffffff1673ffffffffffffffffffffffffffffffffffffffff168152602001908152602001600020604051806060016040528084815260200183815260200142815250908060018154018082558091505060019003906000526020600020906003020160009091909190915060008201518160000190805190602001906109ef929190610a6e565b506020820151816001019080519060200190610a0c929190610a6e565b506040820151816002015550508273ffffffffffffffffffffffffffffffffffffffff167f2f82310531f67ec4eae39b4f0d4e2ea9a5e6da4bb8f084adb414ec441b761c5d8383604051610a61929190611079565b60405180910390a2505050565b828054610a7a906112ae565b90600052602060002090601f016020900481019282610a9c5760008555610ae3565b82601f10610ab557805160ff1916838001178555610ae3565b82800160010185558215610ae3579182015b82811115610ae2578251825591602001919060010190610ac7565b5b509050610af09190610af4565b5090565b5b80821115610b0d576000816000905550600101610af5565b5090565b6000610b24610b1f84611161565b611130565b905082815260208101848484011115610b3c57600080fd5b610b4784828561126c565b509392505050565b600081359050610b5e816113c7565b92915050565b600082601f830112610b7557600080fd5b8135610b85848260208601610b11565b91505092915050565b600081359050610b9d816113de565b92915050565b600060208284031215610bb557600080fd5b6000610bc384828501610b4f565b91505092915050565b60008060408385031215610bdf57600080fd5b6000610bed85828601610b4f565b9250506020610bfe85828601610b4f565b9150509250929050565b600080600060608486031215610c1d57600080fd5b6000610c2b86828701610b4f565b935050602084013567ffffffffffffffff811115610c4857600080fd5b610c5486828701610b64565b925050604084013567ffffffffffffffff811115610c7157600080fd5b610c7d86828701610b64565b9150509250925092565b600060208284031215610c9957600080fd5b6000610ca784828501610b8e565b91505092915050565b6000610cbc8383610cdc565b60208301905092915050565b6000610cd48383610f8b565b905092915050565b610ce581611230565b82525050565b610cf481611230565b82525050565b6000610d05826111b1565b610d0f81856111ec565b9350610d1a83611191565b8060005b83811015610d4b578151610d328882610cb0565b9750610d3d836111d2565b925050600181019050610d1e565b5085935050505092915050565b6000610d63826111bc565b610d6d81856111fd565b935083602082028501610d7f856111a1565b8060005b85811015610dbb5784840389528151610d9c8582610cc8565b9450610da7836111df565b925060208a01995050600181019050610d83565b50829750879550505050505092915050565b6000610dd8826111c7565b610de2818561120e565b9350610df281856020860161127b565b610dfb816113b6565b840191505092915050565b6000610e11826111c7565b610e1b818561121f565b9350610e2b81856020860161127b565b610e34816113b6565b840191505092915050565b6000610e4c60178361121f565b91507f496e76616c69642070617469656e7420616464726573730000000000000000006000830152602082019050919050565b6000610e8c60278361121f565b91507f4f6e6c792074686520646f63746f722063616e20706572666f726d207468697360008301527f20616374696f6e000000000000000000000000000000000000000000000000006020830152604082019050919050565b6000610ef260228361121f565b91507f4f6e6c792061756469742063616e20706572666f726d2074686973206163746960008301527f6f6e0000000000000000000000000000000000000000000000000000000000006020830152604082019050919050565b6000610f58601a8361121f565b91507f50617469656e7420616c726561647920617574686f72697a65640000000000006000830152602082019050919050565b60006060830160008301518482036000860152610fa88282610dcd565b91505060208301518482036020860152610fc28282610dcd565b9150506040830151610fd76040860182610fe2565b508091505092915050565b610feb81611262565b82525050565b60006020820190506110066000830184610ceb565b92915050565b60006040820190506110216000830185610ceb565b61102e6020830184610ceb565b9392505050565b6000602082019050818103600083015261104f8184610cfa565b905092915050565b600060208201905081810360008301526110718184610d58565b905092915050565b600060408201905081810360008301526110938185610e06565b905081810360208301526110a78184610e06565b90509392505050565b600060208201905081810360008301526110c981610e3f565b9050919050565b600060208201905081810360008301526110e981610e7f565b9050919050565b6000602082019050818103600083015261110981610ee5565b9050919050565b6000602082019050818103600083015261112981610f4b565b9050919050565b6000604051905081810181811067ffffffffffffffff8211171561115757611156611387565b5b8060405250919050565b600067ffffffffffffffff82111561117c5761117b611387565b5b601f19601f8301169050602081019050919050565b6000819050602082019050919050565b6000819050602082019050919050565b600081519050919050565b600081519050919050565b600081519050919050565b6000602082019050919050565b6000602082019050919050565b600082825260208201905092915050565b600082825260208201905092915050565b600082825260208201905092915050565b600082825260208201905092915050565b600061123b82611242565b9050919050565b600073ffffffffffffffffffffffffffffffffffffffff82169050919050565b6000819050919050565b82818337600083830152505050565b60005b8381101561129957808201518184015260208101905061127e565b838111156112a8576000848401525b50505050565b600060028204905060018216806112c657607f821691505b602082108114156112da576112d9611358565b5b50919050565b60006112eb82611262565b91507fffffffffffffffffffffffffffffffffffffffffffffffffffffffffffffffff82141561131e5761131d611329565b5b600182019050919050565b7f4e487b7100000000000000000000000000000000000000000000000000000000600052601160045260246000fd5b7f4e487b7100000000000000000000000000000000000000000000000000000000600052602260045260246000fd5b7f4e487b7100000000000000000000000000000000000000000000000000000000600052604160045260246000fd5b6000601f19601f8301169050919050565b6113d081611230565b81146113db57600080fd5b50565b6113e781611262565b81146113f257600080fd5b5056fea264697066735822122099bd94b24a6c31680610eab053b049ac3c422d9275ed79d7803dcdd95089b7ac64736f6c63430008000033",
  "immutableReferences": {},
  "source": "// SPDX-License-Identifier: MIT\r\npragma solidity ^0.8.0;\r\n\r\ncontract DoctorContract {\r\n    address public doctorAddress;\r\n    address public auditAddress;\r\n\r\n    struct Patient {\r\n        address patientAddress;\r\n        address patientContract;\r\n    }\r\n\r\n    struct File {\r\n        string fileName;\r\n        string fileHash;\r\n        uint256 timestamp;\r\n    }\r\n\r\n\r\n    mapping(address => bool) private authorizedPatients; // Track authorized patients\r\n    mapping(address => File[]) private patientFiles; // Track files uploaded for each patient\r\n    Patient[] public patientList;\r\n\r\n    event PermissionGranted(address indexed patientAddress, address indexed patientContract);\r\n    event FileUploaded(address indexed patientAddress, string fileName, string fileHash);\r\n\r\n    modifier onlyDoctor() {\r\n        require(msg.sender == doctorAddress, \"Only the doctor can perform this action\");\r\n        _;\r\n    }\r\n\r\n    modifier onlyAudit() {\r\n        require(msg.sender == auditAddress, \"Only audit can perform this action\");\r\n        _;\r\n    }\r\n\r\n    constructor(address _doctorAddress, address _auditAddress) {\r\n        doctorAddress = _doctorAddress;\r\n        auditAddress = _auditAddress;\r\n    }\r\n\r\n    function addPatient(address _patientAddress, address _patientContract) external onlyAudit {\r\n        require(!authorizedPatients[_patientAddress], \"Patient already authorized\");\r\n        authorizedPatients[_patientAddress] = true;\r\n\r\n        patientList.push(Patient(_patientAddress, _patientContract));\r\n        emit PermissionGranted(_patientAddress, _patientContract);\r\n    }\r\n\r\n   function uploadFile(address _patientAddress, string memory _fileName, string memory _fileHash) external onlyDoctor {\r\n        require(_patientAddress != address(0), \"Invalid patient address\");\r\n        patientFiles[_patientAddress].push(File({\r\n            fileName: _fileName,\r\n            fileHash: _fileHash,\r\n            timestamp: block.timestamp\r\n        }));\r\n        emit FileUploaded(_patientAddress, _fileName, _fileHash);\r\n    }\r\n\r\n\r\n\r\n    function getPatientFiles(address _patientAddress) external view returns (File[] memory) {\r\n        // Remove the access control restriction to allow all users access\r\n        return patientFiles[_patientAddress];\r\n    }\r\n\r\n\r\n\r\n\r\n    function getAuthorizedPatients() external view returns (address[] memory) {\r\n        address[] memory addresses = new address[](patientList.length);\r\n        for (uint256 i = 0; i < patientList.length; i++) {\r\n            addresses[i] = patientList[i].patientAddress;\r\n        }\r\n        return addresses;\r\n    }\r\n}\r\n",
  "sourcePath": "C:\\Users\\IMANE\\Desktop\\Blockchain\\blockchain_project\\contracts\\DoctorContract.sol",
  "compiler": {
    "name": "solc",
    "version": "0.8.0+commit.c7dfd78e.Emscripten.clang"
  },
  "schemaVersion": "3.4.16",
  "updatedAt": "2024-12-16T18:40:18.194Z",
  "devdoc": {
    "kind": "dev",
    "methods": {},
    "version": 1
  },
  "userdoc": {
    "kind": "user",
    "methods": {},
    "version": 1
  }
}