{
  "contractName": "PatientContract",
  "abi": [
    {
      "inputs": [
        {
          "internalType": "address",
          "name": "_auditAddress",
          "type": "address"
        }
      ],
      "stateMutability": "nonpayable",
      "type": "constructor"
    },
    {
      "anonymous": false,
      "inputs": [
        {
          "indexed": false,
          "internalType": "uint256",
          "name": "timestamp",
          "type": "uint256"
        }
      ],
      "name": "PersonalInfoUpdated",
      "type": "event"
    },
    {
      "inputs": [],
      "name": "auditAddress",
      "outputs": [
        {
          "internalType": "address",
          "name": "",
          "type": "address"
        }
      ],
      "stateMutability": "view",
      "type": "function",
      "constant": true
    },
    {
      "inputs": [],
      "name": "owner",
      "outputs": [
        {
          "internalType": "address",
          "name": "",
          "type": "address"
        }
      ],
      "stateMutability": "view",
      "type": "function",
      "constant": true
    },
    {
      "inputs": [],
      "name": "personalInfo",
      "outputs": [
        {
          "internalType": "string",
          "name": "gender",
          "type": "string"
        },
        {
          "internalType": "string",
          "name": "dob",
          "type": "string"
        },
        {
          "internalType": "string",
          "name": "bloodType",
          "type": "string"
        },
        {
          "internalType": "string",
          "name": "phone",
          "type": "string"
        },
        {
          "internalType": "string",
          "name": "addressInfo",
          "type": "string"
        },
        {
          "internalType": "string",
          "name": "notes",
          "type": "string"
        },
        {
          "internalType": "string",
          "name": "medicalConditions",
          "type": "string"
        },
        {
          "internalType": "string",
          "name": "allergies",
          "type": "string"
        },
        {
          "internalType": "uint256",
          "name": "lastUpdated",
          "type": "uint256"
        }
      ],
      "stateMutability": "view",
      "type": "function",
      "constant": true
    },
    {
      "inputs": [
        {
          "internalType": "string",
          "name": "_gender",
          "type": "string"
        },
        {
          "internalType": "string",
          "name": "_dob",
          "type": "string"
        },
        {
          "internalType": "string",
          "name": "_bloodType",
          "type": "string"
        },
        {
          "internalType": "string",
          "name": "_phone",
          "type": "string"
        },
        {
          "internalType": "string",
          "name": "_addressInfo",
          "type": "string"
        },
        {
          "internalType": "string",
          "name": "_notes",
          "type": "string"
        },
        {
          "internalType": "string",
          "name": "_medicalConditions",
          "type": "string"
        },
        {
          "internalType": "string",
          "name": "_allergies",
          "type": "string"
        }
      ],
      "name": "updatePersonalInfo",
      "outputs": [],
      "stateMutability": "nonpayable",
      "type": "function"
    },
    {
      "inputs": [],
      "name": "getPersonalInfo",
      "outputs": [
        {
          "components": [
            {
              "internalType": "string",
              "name": "gender",
              "type": "string"
            },
            {
              "internalType": "string",
              "name": "dob",
              "type": "string"
            },
            {
              "internalType": "string",
              "name": "bloodType",
              "type": "string"
            },
            {
              "internalType": "string",
              "name": "phone",
              "type": "string"
            },
            {
              "internalType": "string",
              "name": "addressInfo",
              "type": "string"
            },
            {
              "internalType": "string",
              "name": "notes",
              "type": "string"
            },
            {
              "internalType": "string",
              "name": "medicalConditions",
              "type": "string"
            },
            {
              "internalType": "string",
              "name": "allergies",
              "type": "string"
            },
            {
              "internalType": "uint256",
              "name": "lastUpdated",
              "type": "uint256"
            }
          ],
          "internalType": "struct PatientContract.PersonalInfo",
          "name": "",
          "type": "tuple"
        }
      ],
      "stateMutability": "view",
      "type": "function",
      "constant": true
    }
  ],
  "bytecode": "0x60806040523480156200001157600080fd5b506040516200158038038062001580833981810160405281019062000037919062000096565b80600a60006101000a81548173ffffffffffffffffffffffffffffffffffffffff021916908373ffffffffffffffffffffffffffffffffffffffff1602179055505062000110565b6000815190506200009081620000f6565b92915050565b600060208284031215620000a957600080fd5b6000620000b9848285016200007f565b91505092915050565b6000620000cf82620000d6565b9050919050565b600073ffffffffffffffffffffffffffffffffffffffff82169050919050565b6200010181620000c2565b81146200010d57600080fd5b50565b61146080620001206000396000f3fe608060405234801561001057600080fd5b50600436106100575760003560e01c806357870d5c1461005c5780637ec32d031461007a57806381f539ff146100965780638da5cb5b146100b4578063f2dbf12e146100d2575b600080fd5b6100646100f8565b6040516100719190611140565b60405180910390f35b610094600480360381019061008f9190610dd3565b61011e565b005b61009e610325565b6040516100ab9190611240565b60405180910390f35b6100bc6107da565b6040516100c99190611140565b60405180910390f35b6100da610800565b6040516100ef9998979695949392919061115b565b60405180910390f35b600a60009054906101000a900473ffffffffffffffffffffffffffffffffffffffff1681565b600a60009054906101000a900473ffffffffffffffffffffffffffffffffffffffff1673ffffffffffffffffffffffffffffffffffffffff163373ffffffffffffffffffffffffffffffffffffffff16146101ae576040517f08c379a00000000000000000000000000000000000000000000000000000000081526004016101a590611220565b60405180910390fd5b6040518061012001604052808981526020018881526020018781526020018681526020018581526020018481526020018381526020018281526020014281525060008082015181600001908051906020019061020b929190610c7c565b506020820151816001019080519060200190610228929190610c7c565b506040820151816002019080519060200190610245929190610c7c565b506060820151816003019080519060200190610262929190610c7c565b50608082015181600401908051906020019061027f929190610c7c565b5060a082015181600501908051906020019061029c929190610c7c565b5060c08201518160060190805190602001906102b9929190610c7c565b5060e08201518160070190805190602001906102d6929190610c7c565b5061010082015181600801559050507eecca9c737ac946f473dacf5e8d50ccfc7ba17798923616c10a106cffc2ee99426040516103139190611262565b60405180910390a15050505050505050565b61032d610d02565b60006040518061012001604052908160008201805461034b90611389565b80601f016020809104026020016040519081016040528092919081815260200182805461037790611389565b80156103c45780601f10610399576101008083540402835291602001916103c4565b820191906000526020600020905b8154815290600101906020018083116103a757829003601f168201915b505050505081526020016001820180546103dd90611389565b80601f016020809104026020016040519081016040528092919081815260200182805461040990611389565b80156104565780601f1061042b57610100808354040283529160200191610456565b820191906000526020600020905b81548152906001019060200180831161043957829003601f168201915b5050505050815260200160028201805461046f90611389565b80601f016020809104026020016040519081016040528092919081815260200182805461049b90611389565b80156104e85780601f106104bd576101008083540402835291602001916104e8565b820191906000526020600020905b8154815290600101906020018083116104cb57829003601f168201915b5050505050815260200160038201805461050190611389565b80601f016020809104026020016040519081016040528092919081815260200182805461052d90611389565b801561057a5780601f1061054f5761010080835404028352916020019161057a565b820191906000526020600020905b81548152906001019060200180831161055d57829003601f168201915b5050505050815260200160048201805461059390611389565b80601f01602080910402602001604051908101604052809291908181526020018280546105bf90611389565b801561060c5780601f106105e15761010080835404028352916020019161060c565b820191906000526020600020905b8154815290600101906020018083116105ef57829003601f168201915b5050505050815260200160058201805461062590611389565b80601f016020809104026020016040519081016040528092919081815260200182805461065190611389565b801561069e5780601f106106735761010080835404028352916020019161069e565b820191906000526020600020905b81548152906001019060200180831161068157829003601f168201915b505050505081526020016006820180546106b790611389565b80601f01602080910402602001604051908101604052809291908181526020018280546106e390611389565b80156107305780601f1061070557610100808354040283529160200191610730565b820191906000526020600020905b81548152906001019060200180831161071357829003601f168201915b5050505050815260200160078201805461074990611389565b80601f016020809104026020016040519081016040528092919081815260200182805461077590611389565b80156107c25780601f10610797576101008083540402835291602001916107c2565b820191906000526020600020905b8154815290600101906020018083116107a557829003601f168201915b50505050508152602001600882015481525050905090565b600960009054906101000a900473ffffffffffffffffffffffffffffffffffffffff1681565b600080600001805461081190611389565b80601f016020809104026020016040519081016040528092919081815260200182805461083d90611389565b801561088a5780601f1061085f5761010080835404028352916020019161088a565b820191906000526020600020905b81548152906001019060200180831161086d57829003601f168201915b50505050509080600101805461089f90611389565b80601f01602080910402602001604051908101604052809291908181526020018280546108cb90611389565b80156109185780601f106108ed57610100808354040283529160200191610918565b820191906000526020600020905b8154815290600101906020018083116108fb57829003601f168201915b50505050509080600201805461092d90611389565b80601f016020809104026020016040519081016040528092919081815260200182805461095990611389565b80156109a65780601f1061097b576101008083540402835291602001916109a6565b820191906000526020600020905b81548152906001019060200180831161098957829003601f168201915b5050505050908060030180546109bb90611389565b80601f01602080910402602001604051908101604052809291908181526020018280546109e790611389565b8015610a345780601f10610a0957610100808354040283529160200191610a34565b820191906000526020600020905b815481529060010190602001808311610a1757829003601f168201915b505050505090806004018054610a4990611389565b80601f0160208091040260200160405190810160405280929190818152602001828054610a7590611389565b8015610ac25780601f10610a9757610100808354040283529160200191610ac2565b820191906000526020600020905b815481529060010190602001808311610aa557829003601f168201915b505050505090806005018054610ad790611389565b80601f0160208091040260200160405190810160405280929190818152602001828054610b0390611389565b8015610b505780601f10610b2557610100808354040283529160200191610b50565b820191906000526020600020905b815481529060010190602001808311610b3357829003601f168201915b505050505090806006018054610b6590611389565b80601f0160208091040260200160405190810160405280929190818152602001828054610b9190611389565b8015610bde5780601f10610bb357610100808354040283529160200191610bde565b820191906000526020600020905b815481529060010190602001808311610bc157829003601f168201915b505050505090806007018054610bf390611389565b80601f0160208091040260200160405190810160405280929190818152602001828054610c1f90611389565b8015610c6c5780601f10610c4157610100808354040283529160200191610c6c565b820191906000526020600020905b815481529060010190602001808311610c4f57829003601f168201915b5050505050908060080154905089565b828054610c8890611389565b90600052602060002090601f016020900481019282610caa5760008555610cf1565b82601f10610cc357805160ff1916838001178555610cf1565b82800160010185558215610cf1579182015b82811115610cf0578251825591602001919060010190610cd5565b5b509050610cfe9190610d4e565b5090565b6040518061012001604052806060815260200160608152602001606081526020016060815260200160608152602001606081526020016060815260200160608152602001600081525090565b5b80821115610d67576000816000905550600101610d4f565b5090565b6000610d7e610d79846112ae565b61127d565b905082815260208101848484011115610d9657600080fd5b610da1848285611347565b509392505050565b600082601f830112610dba57600080fd5b8135610dca848260208601610d6b565b91505092915050565b600080600080600080600080610100898b031215610df057600080fd5b600089013567ffffffffffffffff811115610e0a57600080fd5b610e168b828c01610da9565b985050602089013567ffffffffffffffff811115610e3357600080fd5b610e3f8b828c01610da9565b975050604089013567ffffffffffffffff811115610e5c57600080fd5b610e688b828c01610da9565b965050606089013567ffffffffffffffff811115610e8557600080fd5b610e918b828c01610da9565b955050608089013567ffffffffffffffff811115610eae57600080fd5b610eba8b828c01610da9565b94505060a089013567ffffffffffffffff811115610ed757600080fd5b610ee38b828c01610da9565b93505060c089013567ffffffffffffffff811115610f0057600080fd5b610f0c8b828c01610da9565b92505060e089013567ffffffffffffffff811115610f2957600080fd5b610f358b828c01610da9565b9150509295985092959890939650565b610f4e8161130b565b82525050565b6000610f5f826112de565b610f6981856112e9565b9350610f79818560208601611356565b610f8281611419565b840191505092915050565b6000610f98826112de565b610fa281856112fa565b9350610fb2818560208601611356565b610fbb81611419565b840191505092915050565b6000610fd36022836112fa565b91507f4f6e6c792061756469742063616e20706572666f726d2074686973206163746960008301527f6f6e0000000000000000000000000000000000000000000000000000000000006020830152604082019050919050565b600061012083016000830151848203600086015261104a8282610f54565b915050602083015184820360208601526110648282610f54565b9150506040830151848203604086015261107e8282610f54565b915050606083015184820360608601526110988282610f54565b915050608083015184820360808601526110b28282610f54565b91505060a083015184820360a08601526110cc8282610f54565b91505060c083015184820360c08601526110e68282610f54565b91505060e083015184820360e08601526111008282610f54565b915050610100830151611117610100860182611122565b508091505092915050565b61112b8161133d565b82525050565b61113a8161133d565b82525050565b60006020820190506111556000830184610f45565b92915050565b6000610120820190508181036000830152611176818c610f8d565b9050818103602083015261118a818b610f8d565b9050818103604083015261119e818a610f8d565b905081810360608301526111b28189610f8d565b905081810360808301526111c68188610f8d565b905081810360a08301526111da8187610f8d565b905081810360c08301526111ee8186610f8d565b905081810360e08301526112028185610f8d565b9050611212610100830184611131565b9a9950505050505050505050565b6000602082019050818103600083015261123981610fc6565b9050919050565b6000602082019050818103600083015261125a818461102c565b905092915050565b60006020820190506112776000830184611131565b92915050565b6000604051905081810181811067ffffffffffffffff821117156112a4576112a36113ea565b5b8060405250919050565b600067ffffffffffffffff8211156112c9576112c86113ea565b5b601f19601f8301169050602081019050919050565b600081519050919050565b600082825260208201905092915050565b600082825260208201905092915050565b60006113168261131d565b9050919050565b600073ffffffffffffffffffffffffffffffffffffffff82169050919050565b6000819050919050565b82818337600083830152505050565b60005b83811015611374578082015181840152602081019050611359565b83811115611383576000848401525b50505050565b600060028204905060018216806113a157607f821691505b602082108114156113b5576113b46113bb565b5b50919050565b7f4e487b7100000000000000000000000000000000000000000000000000000000600052602260045260246000fd5b7f4e487b7100000000000000000000000000000000000000000000000000000000600052604160045260246000fd5b6000601f19601f830116905091905056fea2646970667358221220cfd7c92cfe98907a622fdb8402a69493d4410bae4636d62292689b12817fefd164736f6c63430008000033",
  "immutableReferences": {},
  "source": "// SPDX-License-Identifier: MIT\r\npragma solidity ^0.8.0;\r\n\r\ncontract PatientContract {\r\n    struct PersonalInfo {\r\n        string gender;\r\n        string dob;\r\n        string bloodType;\r\n        string phone;\r\n        string addressInfo;\r\n        string notes;\r\n        string medicalConditions;\r\n        string allergies;\r\n        uint256 lastUpdated;\r\n    }\r\n\r\n    PersonalInfo public personalInfo;\r\n    address public owner;       // Patient's Ethereum address\r\n    address public auditAddress;\r\n\r\n    event PersonalInfoUpdated(uint256 timestamp);\r\n\r\n    modifier onlyAudit() {\r\n        require(msg.sender == auditAddress, \"Only audit can perform this action\");\r\n        _;\r\n    }\r\n\r\n    constructor(address _auditAddress) {\r\n        auditAddress = _auditAddress;\r\n    }\r\n\r\n    function updatePersonalInfo(\r\n        string memory _gender,\r\n        string memory _dob,\r\n        string memory _bloodType,\r\n        string memory _phone,\r\n        string memory _addressInfo,\r\n        string memory _notes,\r\n        string memory _medicalConditions,\r\n        string memory _allergies\r\n    ) public onlyAudit {\r\n        personalInfo = PersonalInfo(\r\n            _gender,\r\n            _dob,\r\n            _bloodType,\r\n            _phone,\r\n            _addressInfo,\r\n            _notes,\r\n            _medicalConditions,\r\n            _allergies,\r\n            block.timestamp\r\n        );\r\n\r\n        emit PersonalInfoUpdated(block.timestamp);\r\n    }\r\n\r\n    function getPersonalInfo() public view returns (PersonalInfo memory) {\r\n        return personalInfo;\r\n    }\r\n}\r\n",
  "sourcePath": "C:\\Users\\IMANE\\Desktop\\Blockchain\\blockchain_project\\contracts\\PatientContract.sol",
  "compiler": {
    "name": "solc",
    "version": "0.8.0+commit.c7dfd78e.Emscripten.clang"
  },
  "schemaVersion": "3.4.16",
  "updatedAt": "2024-12-16T18:40:22.793Z",
  "networkType": "ethereum",
  "devdoc": {
    "kind": "dev",
    "methods": {},
    "version": 1
  },
  "userdoc": {
    "kind": "user",
    "methods": {},
    "version": 1
  }
}