{
  "contractName": "PatientRecords",
  "abi": [
    {
      "inputs": [
        {
          "internalType": "string",
          "name": "_name",
          "type": "string"
        },
        {
          "internalType": "string",
          "name": "_contactInfo",
          "type": "string"
        },
        {
          "internalType": "string",
          "name": "_insuranceDetails",
          "type": "string"
        },
        {
          "internalType": "string[]",
          "name": "_allergies",
          "type": "string[]"
        },
        {
          "internalType": "bool",
          "name": "_hasChronicConditions",
          "type": "bool"
        }
      ],
      "name": "registerPatient",
      "outputs": [],
      "stateMutability": "nonpayable",
      "type": "function"
    },
    {
      "inputs": [
        {
          "internalType": "string",
          "name": "_ipfsHash",
          "type": "string"
        },
        {
          "internalType": "string",
          "name": "_fileName",
          "type": "string"
        }
      ],
      "name": "addMedicalRecord",
      "outputs": [],
      "stateMutability": "nonpayable",
      "type": "function"
    },
    {
      "inputs": [],
      "name": "getMedicalRecords",
      "outputs": [
        {
          "components": [
            {
              "internalType": "string",
              "name": "ipfsHash",
              "type": "string"
            },
            {
              "internalType": "string",
              "name": "fileName",
              "type": "string"
            },
            {
              "internalType": "uint256",
              "name": "timestamp",
              "type": "uint256"
            }
          ],
          "internalType": "struct PatientRecords.Record[]",
          "name": "",
          "type": "tuple[]"
        }
      ],
      "stateMutability": "view",
      "type": "function",
      "constant": true
    },
    {
      "inputs": [],
      "name": "getPatientInfo",
      "outputs": [
        {
          "internalType": "string",
          "name": "",
          "type": "string"
        },
        {
          "internalType": "address",
          "name": "",
          "type": "address"
        },
        {
          "internalType": "uint256",
          "name": "",
          "type": "uint256"
        },
        {
          "internalType": "string",
          "name": "",
          "type": "string"
        },
        {
          "internalType": "string",
          "name": "",
          "type": "string"
        },
        {
          "internalType": "string[]",
          "name": "",
          "type": "string[]"
        },
        {
          "internalType": "bool",
          "name": "",
          "type": "bool"
        }
      ],
      "stateMutability": "view",
      "type": "function",
      "constant": true
    },
    {
      "inputs": [],
      "name": "getAllPatients",
      "outputs": [
        {
          "internalType": "address[]",
          "name": "",
          "type": "address[]"
        }
      ],
      "stateMutability": "view",
      "type": "function",
      "constant": true
    }
  ],
  "bytecode": "0x608060405234801561001057600080fd5b50611ab0806100206000396000f3fe608060405234801561001057600080fd5b50600436106100575760003560e01c806318a231a91461005c578063326df6641461007a5780636aea20d31461009e578063b664b2d4146100bc578063e5953a45146100d8575b600080fd5b6100646100f4565b60405161007191906115ec565b60405180910390f35b610082610182565b6040516100959796959493929190611630565b60405180910390f35b6100a66105af565b6040516100b3919061160e565b60405180910390f35b6100d660048036038101906100d19190611113565b6108f9565b005b6100f260048036038101906100ed91906110a7565b610ba9565b005b6060600280548060200260200160405190810160405280929190818152602001828054801561017857602002820191906000526020600020905b8160009054906101000a900473ffffffffffffffffffffffffffffffffffffffff1673ffffffffffffffffffffffffffffffffffffffff168152602001906001019080831161012e575b5050505050905090565b606060008060608060606000806000803373ffffffffffffffffffffffffffffffffffffffff1673ffffffffffffffffffffffffffffffffffffffff16815260200190815260200160002060000180546101db9061194a565b90501161021d576040517f08c379a0000000000000000000000000000000000000000000000000000000008152600401610214906116db565b60405180910390fd5b60008060003373ffffffffffffffffffffffffffffffffffffffff1673ffffffffffffffffffffffffffffffffffffffff1681526020019081526020016000206040518060e00160405290816000820180546102789061194a565b80601f01602080910402602001604051908101604052809291908181526020018280546102a49061194a565b80156102f15780601f106102c6576101008083540402835291602001916102f1565b820191906000526020600020905b8154815290600101906020018083116102d457829003601f168201915b505050505081526020016001820160009054906101000a900473ffffffffffffffffffffffffffffffffffffffff1673ffffffffffffffffffffffffffffffffffffffff1673ffffffffffffffffffffffffffffffffffffffff1681526020016002820154815260200160038201805461036a9061194a565b80601f01602080910402602001604051908101604052809291908181526020018280546103969061194a565b80156103e35780601f106103b8576101008083540402835291602001916103e3565b820191906000526020600020905b8154815290600101906020018083116103c657829003601f168201915b505050505081526020016004820180546103fc9061194a565b80601f01602080910402602001604051908101604052809291908181526020018280546104289061194a565b80156104755780601f1061044a57610100808354040283529160200191610475565b820191906000526020600020905b81548152906001019060200180831161045857829003601f168201915b5050505050815260200160058201805480602002602001604051908101604052809291908181526020016000905b8282101561054f5783829060005260206000200180546104c29061194a565b80601f01602080910402602001604051908101604052809291908181526020018280546104ee9061194a565b801561053b5780601f106105105761010080835404028352916020019161053b565b820191906000526020600020905b81548152906001019060200180831161051e57829003601f168201915b5050505050815260200190600101906104a3565b5050505081526020016006820160009054906101000a900460ff1615151515815250509050806000015181602001518260400151836060015184608001518560a001518660c0015197509750975097509750975097505090919293949596565b606060008060003373ffffffffffffffffffffffffffffffffffffffff1673ffffffffffffffffffffffffffffffffffffffff16815260200190815260200160002060000180546105ff9061194a565b905011610641576040517f08c379a0000000000000000000000000000000000000000000000000000000008152600401610638906116db565b60405180910390fd5b60008060003373ffffffffffffffffffffffffffffffffffffffff1673ffffffffffffffffffffffffffffffffffffffff16815260200190815260200160002060020154905060008167ffffffffffffffff8111156106c9577f4e487b7100000000000000000000000000000000000000000000000000000000600052604160045260246000fd5b60405190808252806020026020018201604052801561070257816020015b6106ef610e1b565b8152602001906001900390816106e75790505b50905060005b828110156108f057600160003373ffffffffffffffffffffffffffffffffffffffff1673ffffffffffffffffffffffffffffffffffffffff168152602001908152602001600020600082815260200190815260200160002060405180606001604052908160008201805461077b9061194a565b80601f01602080910402602001604051908101604052809291908181526020018280546107a79061194a565b80156107f45780601f106107c9576101008083540402835291602001916107f4565b820191906000526020600020905b8154815290600101906020018083116107d757829003601f168201915b5050505050815260200160018201805461080d9061194a565b80601f01602080910402602001604051908101604052809291908181526020018280546108399061194a565b80156108865780601f1061085b57610100808354040283529160200191610886565b820191906000526020600020905b81548152906001019060200180831161086957829003601f168201915b505050505081526020016002820154815250508282815181106108d2577f4e487b7100000000000000000000000000000000000000000000000000000000600052603260045260246000fd5b602002602001018190525080806108e89061197c565b915050610708565b50809250505090565b600085511161093d576040517f08c379a0000000000000000000000000000000000000000000000000000000008152600401610934906116fb565b60405180910390fd5b60008060003373ffffffffffffffffffffffffffffffffffffffff1673ffffffffffffffffffffffffffffffffffffffff168152602001908152602001600020600001805461098b9061194a565b9050146109cd576040517f08c379a00000000000000000000000000000000000000000000000000000000081526004016109c49061173b565b60405180910390fd5b6040518060e001604052808681526020013373ffffffffffffffffffffffffffffffffffffffff168152602001600081526020018581526020018481526020018381526020018215158152506000803373ffffffffffffffffffffffffffffffffffffffff1673ffffffffffffffffffffffffffffffffffffffff1681526020019081526020016000206000820151816000019080519060200190610a73929190610e3c565b5060208201518160010160006101000a81548173ffffffffffffffffffffffffffffffffffffffff021916908373ffffffffffffffffffffffffffffffffffffffff160217905550604082015181600201556060820151816003019080519060200190610ae1929190610e3c565b506080820151816004019080519060200190610afe929190610e3c565b5060a0820151816005019080519060200190610b1b929190610ec2565b5060c08201518160060160006101000a81548160ff0219169083151502179055509050506002339080600181540180825580915050600190039060005260206000200160009091909190916101000a81548173ffffffffffffffffffffffffffffffffffffffff021916908373ffffffffffffffffffffffffffffffffffffffff1602179055505050505050565b6000825111610bed576040517f08c379a0000000000000000000000000000000000000000000000000000000008152600401610be49061171b565b60405180910390fd5b6000815111610c31576040517f08c379a0000000000000000000000000000000000000000000000000000000008152600401610c28906116bb565b60405180910390fd5b60008060003373ffffffffffffffffffffffffffffffffffffffff1673ffffffffffffffffffffffffffffffffffffffff1681526020019081526020016000206000018054610c7f9061194a565b905011610cc1576040517f08c379a0000000000000000000000000000000000000000000000000000000008152600401610cb8906116db565b60405180910390fd5b60008060003373ffffffffffffffffffffffffffffffffffffffff1673ffffffffffffffffffffffffffffffffffffffff1681526020019081526020016000206002015490506000604051806060016040528085815260200184815260200142815250905080600160003373ffffffffffffffffffffffffffffffffffffffff1673ffffffffffffffffffffffffffffffffffffffff16815260200190815260200160002060008481526020019081526020016000206000820151816000019080519060200190610d93929190610e3c565b506020820151816001019080519060200190610db0929190610e3c565b50604082015181600201559050506000803373ffffffffffffffffffffffffffffffffffffffff1673ffffffffffffffffffffffffffffffffffffffff1681526020019081526020016000206002016000815480929190610e109061197c565b919050555050505050565b60405180606001604052806060815260200160608152602001600081525090565b828054610e489061194a565b90600052602060002090601f016020900481019282610e6a5760008555610eb1565b82601f10610e8357805160ff1916838001178555610eb1565b82800160010185558215610eb1579182015b82811115610eb0578251825591602001919060010190610e95565b5b509050610ebe9190610f22565b5090565b828054828255906000526020600020908101928215610f11579160200282015b82811115610f10578251829080519060200190610f00929190610e3c565b5091602001919060010190610ee2565b5b509050610f1e9190610f3f565b5090565b5b80821115610f3b576000816000905550600101610f23565b5090565b5b80821115610f5f5760008181610f569190610f63565b50600101610f40565b5090565b508054610f6f9061194a565b6000825580601f10610f815750610fa0565b601f016020900490600052602060002090810190610f9f9190610f22565b5b50565b6000610fb6610fb18461178c565b61175b565b9050808382526020820190508260005b85811015610ff65781358501610fdc888261107d565b845260208401935060208301925050600181019050610fc6565b5050509392505050565b600061101361100e846117b8565b61175b565b90508281526020810184848401111561102b57600080fd5b611036848285611908565b509392505050565b600082601f83011261104f57600080fd5b813561105f848260208601610fa3565b91505092915050565b60008135905061107781611a63565b92915050565b600082601f83011261108e57600080fd5b813561109e848260208601611000565b91505092915050565b600080604083850312156110ba57600080fd5b600083013567ffffffffffffffff8111156110d457600080fd5b6110e08582860161107d565b925050602083013567ffffffffffffffff8111156110fd57600080fd5b6111098582860161107d565b9150509250929050565b600080600080600060a0868803121561112b57600080fd5b600086013567ffffffffffffffff81111561114557600080fd5b6111518882890161107d565b955050602086013567ffffffffffffffff81111561116e57600080fd5b61117a8882890161107d565b945050604086013567ffffffffffffffff81111561119757600080fd5b6111a38882890161107d565b935050606086013567ffffffffffffffff8111156111c057600080fd5b6111cc8882890161103e565b92505060806111dd88828901611068565b9150509295509295909350565b60006111f6838361122a565b60208301905092915050565b600061120e838361139f565b905092915050565b60006112228383611577565b905092915050565b611233816118c0565b82525050565b611242816118c0565b82525050565b600061125382611818565b61125d818561186b565b9350611268836117e8565b8060005b8381101561129957815161128088826111ea565b975061128b83611844565b92505060018101905061126c565b5085935050505092915050565b60006112b182611823565b6112bb818561187c565b9350836020820285016112cd856117f8565b8060005b8581101561130957848403895281516112ea8582611202565b94506112f583611851565b925060208a019950506001810190506112d1565b50829750879550505050505092915050565b60006113268261182e565b611330818561188d565b93508360208202850161134285611808565b8060005b8581101561137e578484038952815161135f8582611216565b945061136a8361185e565b925060208a01995050600181019050611346565b50829750879550505050505092915050565b611399816118d2565b82525050565b60006113aa82611839565b6113b4818561189e565b93506113c4818560208601611917565b6113cd81611a52565b840191505092915050565b60006113e382611839565b6113ed81856118af565b93506113fd818560208601611917565b61140681611a52565b840191505092915050565b600061141e6021836118af565b91507f4c65206e6f6d206475206669636869657220657374206f626c696761746f697260008301527f65000000000000000000000000000000000000000000000000000000000000006020830152604082019050919050565b60006114846016836118af565b91507f50617469656e74206e6f6e20656e7265676973747265000000000000000000006000830152602082019050919050565b60006114c46016836118af565b91507f4c65206e6f6d20657374206f626c696761746f697265000000000000000000006000830152602082019050919050565b6000611504601c836118af565b91507f4c652068617368204950465320657374206f626c696761746f697265000000006000830152602082019050919050565b60006115446017836118af565b91507f50617469656e742064656a6120656e72656769737472650000000000000000006000830152602082019050919050565b60006060830160008301518482036000860152611594828261139f565b915050602083015184820360208601526115ae828261139f565b91505060408301516115c360408601826115ce565b508091505092915050565b6115d7816118fe565b82525050565b6115e6816118fe565b82525050565b600060208201905081810360008301526116068184611248565b905092915050565b60006020820190508181036000830152611628818461131b565b905092915050565b600060e082019050818103600083015261164a818a6113d8565b90506116596020830189611239565b61166660408301886115dd565b818103606083015261167881876113d8565b9050818103608083015261168c81866113d8565b905081810360a08301526116a081856112a6565b90506116af60c0830184611390565b98975050505050505050565b600060208201905081810360008301526116d481611411565b9050919050565b600060208201905081810360008301526116f481611477565b9050919050565b60006020820190508181036000830152611714816114b7565b9050919050565b60006020820190508181036000830152611734816114f7565b9050919050565b6000602082019050818103600083015261175481611537565b9050919050565b6000604051905081810181811067ffffffffffffffff8211171561178257611781611a23565b5b8060405250919050565b600067ffffffffffffffff8211156117a7576117a6611a23565b5b602082029050602081019050919050565b600067ffffffffffffffff8211156117d3576117d2611a23565b5b601f19601f8301169050602081019050919050565b6000819050602082019050919050565b6000819050602082019050919050565b6000819050602082019050919050565b600081519050919050565b600081519050919050565b600081519050919050565b600081519050919050565b6000602082019050919050565b6000602082019050919050565b6000602082019050919050565b600082825260208201905092915050565b600082825260208201905092915050565b600082825260208201905092915050565b600082825260208201905092915050565b600082825260208201905092915050565b60006118cb826118de565b9050919050565b60008115159050919050565b600073ffffffffffffffffffffffffffffffffffffffff82169050919050565b6000819050919050565b82818337600083830152505050565b60005b8381101561193557808201518184015260208101905061191a565b83811115611944576000848401525b50505050565b6000600282049050600182168061196257607f821691505b60208210811415611976576119756119f4565b5b50919050565b6000611987826118fe565b91507fffffffffffffffffffffffffffffffffffffffffffffffffffffffffffffffff8214156119ba576119b96119c5565b5b600182019050919050565b7f4e487b7100000000000000000000000000000000000000000000000000000000600052601160045260246000fd5b7f4e487b7100000000000000000000000000000000000000000000000000000000600052602260045260246000fd5b7f4e487b7100000000000000000000000000000000000000000000000000000000600052604160045260246000fd5b6000601f19601f8301169050919050565b611a6c816118d2565b8114611a7757600080fd5b5056fea2646970667358221220ef3eb0fbf1bf4cd70af8bf586ebb07f53b4a5156c9ed27f09f005eeacbadea2d64736f6c63430008000033",
  "immutableReferences": {},
  "source": "// SPDX-License-Identifier: MIT\r\npragma solidity ^0.8.0;\r\n\r\ncontract PatientRecords {\r\n\r\n    // Dfinir la structure pour un dossier mdical\r\n    struct Record {\r\n        string ipfsHash;\r\n        string fileName;\r\n        uint256 timestamp;\r\n    }\r\n\r\n    // Dfinir la structure pour un patient\r\n    struct Patient {\r\n        string name; // Nom du patient\r\n        address walletAddress; // Adresse Ethereum du patient\r\n        uint256 recordCount; // Compteur de dossiers mdicaux\r\n        string contactInfo; // Contact du patient (email ou tlphone)\r\n        string insuranceDetails; // Dtails de l'assurance\r\n        string[] allergies; // Liste des allergies\r\n        bool hasChronicConditions; // Indique si le patient a des maladies chroniques\r\n    }\r\n\r\n    // Mappage d'adresse  Patient\r\n    mapping(address => Patient) private patients;\r\n\r\n    // Mappage d'adresse  mappage d'index de dossier  Record\r\n    mapping(address => mapping(uint256 => Record)) private patientRecords;\r\n    \r\n    // Liste des adresses des patients\r\n    address[] private patientAddresses;\r\n\r\n    // Enregistrer un patient\r\n    function registerPatient(\r\n        string memory _name,\r\n        string memory _contactInfo,\r\n        string memory _insuranceDetails,\r\n        string[] memory _allergies,\r\n        bool _hasChronicConditions\r\n    ) public {\r\n        require(bytes(_name).length > 0, \"Le nom est obligatoire\");\r\n        require(bytes(patients[msg.sender].name).length == 0, \"Patient deja enregistre\");\r\n\r\n        patients[msg.sender] = Patient({\r\n            name: _name,\r\n            walletAddress: msg.sender,\r\n            recordCount: 0, // Initialiser le compteur de dossiers  0\r\n            contactInfo: _contactInfo,\r\n            insuranceDetails: _insuranceDetails,\r\n            allergies: _allergies,\r\n            hasChronicConditions: _hasChronicConditions\r\n        });\r\n\r\n        patientAddresses.push(msg.sender);\r\n    }\r\n\r\n    // Ajouter un dossier mdical pour un patient\r\n    function addMedicalRecord(string memory _ipfsHash, string memory _fileName) public {\r\n        require(bytes(_ipfsHash).length > 0, \"Le hash IPFS est obligatoire\");\r\n        require(bytes(_fileName).length > 0, \"Le nom du fichier est obligatoire\");\r\n        require(bytes(patients[msg.sender].name).length > 0, \"Patient non enregistre\");\r\n\r\n        uint256 recordIndex = patients[msg.sender].recordCount;\r\n\r\n        // Crer un nouveau dossier mdical\r\n        Record memory newRecord = Record({\r\n            ipfsHash: _ipfsHash,\r\n            fileName: _fileName,\r\n            timestamp: block.timestamp\r\n        });\r\n\r\n        // Sauvegarder le dossier mdical dans le mappage\r\n        patientRecords[msg.sender][recordIndex] = newRecord;\r\n\r\n        // Mettre  jour le compteur de dossiers\r\n        patients[msg.sender].recordCount++;\r\n    }\r\n\r\n    // Rcuprer les dossiers mdicaux d'un patient\r\n    function getMedicalRecords() public view returns (Record[] memory) {\r\n        require(bytes(patients[msg.sender].name).length > 0, \"Patient non enregistre\");\r\n\r\n        uint256 recordCount = patients[msg.sender].recordCount;\r\n        Record[] memory records = new Record[](recordCount);\r\n\r\n        for (uint256 i = 0; i < recordCount; i++) {\r\n            records[i] = patientRecords[msg.sender][i];\r\n        }\r\n\r\n        return records;\r\n    }\r\n\r\n    // Rcuprer les informations d'un patient\r\n    function getPatientInfo() public view returns (\r\n        string memory, \r\n        address, \r\n        uint256, \r\n        string memory, \r\n        string memory, \r\n        string[] memory, \r\n        bool\r\n    ) {\r\n        require(bytes(patients[msg.sender].name).length > 0, \"Patient non enregistre\");\r\n        Patient memory patient = patients[msg.sender];\r\n        return (\r\n            patient.name,\r\n            patient.walletAddress,\r\n            patient.recordCount,\r\n            patient.contactInfo,\r\n            patient.insuranceDetails,\r\n            patient.allergies,\r\n            patient.hasChronicConditions\r\n        );\r\n    }\r\n\r\n    // Liste des adresses des patients (administrateurs seulement)\r\n    function getAllPatients() public view returns (address[] memory) {\r\n        return patientAddresses;\r\n    }\r\n}",
  "sourcePath": "C:\\Users\\LOUBNA\\Desktop\\medical-app\\contracts\\PatientRecords.sol",
  "compiler": {
    "name": "solc",
    "version": "0.8.0+commit.c7dfd78e.Emscripten.clang"
  },
  "schemaVersion": "3.4.16",
  "updatedAt": "2024-12-04T13:07:54.250Z",
  "networkType": "ethereum",
  "devdoc": {
    "kind": "dev",
    "methods": {},
    "version": 1
  },
  "userdoc": {
    "kind": "user",
    "methods": {},
    "version": 1
  }
}